:100000000C9448030C9470030C9470030C947F1FA1
:100010000C9470030C94ED1F0C9470030C947003FB
:100020000C9470030C9470030C9470030C94700384
:100030000C9470030C9470030C9470030C94700374
:100040000C94DF280C9470030C944D240C942724FA
:100050000C9470030C9470030C9470030C94700354
:100060000C9470030C947003DB10DB100512BC11B0
:100070008011DB10DB10DB108011BC11706F73502E
:1000800065616B006E65675065616B00706F7350E2
:1000900065616B457374006E65675065616B457390
:1000A00074006573745065616B00640069007000D2
:1000B00062656572536C6F70650064696666496E4F
:1000C00074656772616C006265657244696666009A
:1000D000C7000003BA000203B0000603AE00080226
:1000E000AC000A02AA000C02A2000E019700100147
:1000F0008C001201840014017C0016012575002279
:1001000025732200756E6B6E6F776E00302E322E67
:100110003130004E3A7B2276223A222553222C227D
:100120006E223A222553222C2273223A25642C2255
:1001300079223A25642C2262223A222563222C223B
:100140006C223A222564227D0020202020202020BD
:100150002020202020200054656D7020636F6E7475
:10016000726F6C207475726E6564206F66662069AC
:100170006E206D656E752E004368616E6765642044
:10018000746F2070726F66696C65206D6F64652096
:10019000696E206D656E752E0020202020202000C5
:1001A00025532074656D702073657420746F20254D
:1001B0007320696E204D656E752E00467269646706
:1001C000650042656572006E756C6C0022257322B5
:1001D00000537461746500526F6F6D54656D7000EB
:1001E000467269646765416E6E0046726964676550
:1001F0005365740046726964676554656D700042AA
:10020000656572416E6E00426565725365740042A9
:1002100065657254656D7000257500636C6F73655C
:1002200064006F70656E656400467269646765207E
:10023000646F6F72202553004300A200DC000A8027
:100240000000030001000200FE9A009AFF660066AB
:10025000FF5802B004010403030404000000146EFC
:10026000756C6C0025642E253033640025642E25C2
:100270003032640025642E25303164006E756C6C5C
:10028000002074696D65206C65667400696E672076
:10029000666F720057616974696E6720666F7220BD
:1002A0007065616B005761697420746F2000436F43
:1002B0006F6C004865617400446F6F72206F7065E9
:1002C0006E0054656D702E20636F6E74726F6C20BB
:1002D0004F46460049646C00222563223A2564009B
:1002E000202D2D2E2D00526F6F6D2020004D6F643C
:1002F0006500496E76616C6964206D6F6465002AE3
:100300002A2054657374696E67202A2A004F666636
:100310000050726F66696C6500426565722000432B
:100320006F6E73742E0046726964676520002564E1
:1003300068253032646D253032640000556E6B6E76
:100340006F776E2073746174757321002225732298
:10035000002564002C2256223A5B006C6F674944EA
:10036000006C6F67547970650062656572536C6FDD
:10037000706546696C740062656572536C6F774690
:10038000696C7400626565724661737446696C7469
:1003900000667269646765536C6F706546696C745A
:1003A00000667269646765536C6F7746696C7400A8
:1003B0006672696467654661737446696C74006847
:1003C00073006C6168006D6178436F6F6C54696D88
:1003D00065466F72457374006D6178486561745449
:1003E000696D65466F7245737400636F6F6C54611D
:1003F000726765744C00636F6F6C546172676574EB
:100400004800686561745461726765744C00686582
:100410006174546172676574480069646C65526107
:100420006E67654C0069646C6552616E6765480073
:10043000694D6178457272004B64004B69004B70E6
:10044000007069644D61780074656D705365744D1A
:1004500061780074656D705365744D696E007465E4
:100460006D70466F726D617400636F6F6C4573746D
:1004700000686561744573740066726964676553EA
:1004800065740062656572536574006D6F64650024
:100490005E040004530401014804030141042503E0
:1004A0003E0405023B0407023804090230040B0332
:1004B00025040D031A040F030E0411030204130391
:1004C000F6031503EA031703D8031905C6031B0532
:1004D000B0031D00A1031E0091031F008403200030
:1004E0007703210069032200C2032300BF03240015
:1004F0004D6F646500426565722074656D700062C1
:10050000792074656D7065726174757265207072A2
:100510006F66696C6500696E2077656220696E742C
:10052000657266616365004672696467652074651B
:100530006D700025532073657420746F202573201F
:1005400025530066616C73650074727565008B04D9
:100550000000571B83040000791B79040000221B54
:1005600071042D03AF1A69042F03AF1A5E04000053
:100570001A1B53044303A61A48044503A61A410450
:1005800067039D1A3E044703AF1A3B044903AF1AA1
:1005900038044B03AF1A30044D039D1A25044F0352
:1005A0009D1A1A0451039D1A0E0453039D1A020446
:1005B00055039D1AF60357039D1AEA0359039D1A22
:1005C000D8035B03601AC6035D03601AC2036503A8
:1005D000211ABF036603211AB0030000E41AA10325
:1005E0000100E41A91030200E41A84030300E41AF0
:1005F00077030400E41A69030500E41A000204000A
:1006000003000110030200000302010006000400C1
:100610000605002006050400030201002300010076
:100620001302000003050400030304100305032064
:100630000000000000000000230026002900040440
:10064000040404040404020202020202030303037A
:100650000303010204081020408001020408102056
:1006600001020408102000000000240027002A00D6
:1006700000000000250028002B00000000080002F8
:100680000100000304070000000000000000AE307D
:1006900011241FBECFEFD8E0DEBFCDBF12E0A0E037
:1006A000B1E0E8E9FDE602C005900D92AA36B10777
:1006B000D9F724E0AAE6B2E001C01D92A53CB2073A
:1006C000E1F713E0C8E4D3E004C02197FE010E94E3
:1006D0008035C734D107C9F70E94E1290C94CA3686
:1006E0000C94D72980910E0190910F01DC01ED91BE
:1006F000FC910084F185E02D0994E0913303F091A1
:100700003403E60FF11D60810C948A20EF92FF9272
:100710000F931F93CF93DF93CDB7DEB72C970FB610
:10072000F894DEBF0FBECDBF7C01E0913303F091A2
:100730003403E60FF11DA081B181AD010B2E000C39
:10074000660B770B809142038634D1F477FD02C0AB
:1007500049E101C047EE2AE530E00E948E35042FC2
:10076000440F110B220B330B600F711F821F931F5D
:1007700022E330E040E050E00E94D234BA01A90107
:100780000CE023E0CE0101960E94C90DBC01C70117
:100790000E949E202C960FB6F894DEBF0FBECDBFF0
:1007A000DF91CF911F910F91FF90EF900895EF92FD
:1007B000FF920F93CF93DF93CDB7DEB72C970FB691
:1007C000F894DEBF0FBECDBF7C01E0913303F09102
:1007D0003403E60FF11D40815181052E000C660B9C
:1007E000770B0CE023E0CE0101960E94C90DBC01FD
:1007F000C7010E949E202C960FB6F894DEBF0FBE54
:10080000CDBFDF91CF910F91FF90EF900895EF92C0
:10081000FF920F93CF93DF93CDB7DEB72C970FB630
:10082000F894DEBF0FBECDBF7C01E0913303F091A1
:100830003403E60FF11D40815181052E000C660B3B
:10084000770B0CE021E0CE0101960E94450EBC0121
:10085000C7010E949E202C960FB6F894DEBF0FBEF3
:10086000CDBFDF91CF910F91FF90EF900895EF9260
:10087000FF920F93CF93DF93CDB7DEB729970FB6D3
:10088000F894DEBF0FBECDBF7C01AB01770F660BC6
:10089000770B09E022E0CE0101960E94450EC701C8
:1008A0000E946320BE016F5F7F4F8CE693E00E9441
:1008B000302929960FB6F894DEBF0FBECDBFDF9169
:1008C000CF910F91FF90EF900895EF92FF920F93C9
:1008D0001F93CF93DF93FC012785222309F43FC0A8
:1008E0007C018C010A5F1F4FB801848195810E94B1
:1008F0002C238115F0E89F0749F4F70187858823A9
:1009000029F160E0C7010E94DC2220C0F7012685A2
:10091000AC01420F511D27FD5A959A0133502230E8
:1009200050E8350754F0211584E0380714F02FEF14
:1009300033E02115ECEF3E0714F420E03CEFE90131
:1009400085E0CC0FDD1F8A95E1F702C0C0E0D0E85A
:10095000B801F701848195810E94A02202C0C0E005
:10096000D0E8CE01DF91CF911F910F91FF90EF90D2
:10097000089549E451E060E087E00C9495150E94E9
:10098000541F49E951E0682F80E00C9495152F928F
:100990003F924F925F926F927F928F929F92AF920F
:1009A000BF92CF92DF92EF92FF920F931F93CF935C
:1009B000DF93CDB7DEB72D970FB6F894DEBF0FBE2D
:1009C000CDBF7B876A871A013D872C87E02EFC010B
:1009D00009958C01C0904303D09044036091450376
:1009E000709146039058029710F400E018EC072E1F
:1009F000000C880B990B0E940E0C3C01B601DD0C1B
:100A0000880B990B0E940E0C6C01B801012E000C92
:100A1000880B990B0E940E0CA301B6010E946E1F59
:100A20000E94FA206C01F12C3AE0432E512C612CEB
:100A3000712C4AE5842E912CA12CB12CC6010E9468
:100A400004210A9708F09BC00E945C1F882309F4C8
:100A50007DC00E94FA206C010E94541F092E000CD8
:100A6000AA0BBB0B29E0880F991FAA1FBB1F2A9551
:100A7000D1F7BC01CD016B5F7F4F8F4F9F4FA3011B
:100A800092010E94D234609142036634C9F430541A
:100A90004109510957FD02C0EDE201C0E3EDA2E3B7
:100AA000B0E00E94F1340E2FEE0F110B220B330B2E
:100AB000600F711F821F931FA50194010E94D23401
:100AC000DA01C9019056A109B1098230F0E89F0707
:100AD000FFEFAF07BF0744F0811520E89207A1059B
:100AE000B1052CF48C0105C002E010E802C00FEF44
:100AF0001FE7A8016E2D8CE00E94791680914103BA
:100B0000811102C0F12C9ACF10924103C801EA85ED
:100B1000FB850995A801110F660B770B09E021E011
:100B2000CE0101960E94450E9F938F933F922F9284
:100B300080EA91E09F938F93EC85FD8509950F9056
:100B40000F900F900F900F900F9019C0F11006C0EA
:100B5000A8016E2D8CE00E94791609C0F0E8FF1202
:100B600006C049E951E06E2D8CE00E949515F39482
:100B700063E070E080E090E00E9499285FCF2D96BE
:100B80000FB6F894DEBF0FBECDBFDF91CF911F919E
:100B90000F91FF90EF90DF90CF90BF90AF909F901C
:100BA0008F907F906F905F904F903F902F9008951F
:100BB0000F931F9301E010E027E937E042EC51E08A
:100BC00061E272E185E59AE00E94C7041F910F91EE
:100BD00008950F931F9302E010E02EE637E04BEBF1
:100BE00051E063E172E180E59AE00E94C7041F9141
:100BF0000F910895CF93DF9300D000D0CDB7DEB72B
:100C000080911C0190911D01A0911E01B0911F01C6
:100C100089839A83AB83BC830E94541F8C0F9D1FD2
:100C200060E0FC0181810F900F900F900F90DF9199
:100C3000CF910C94570F6DE78CE693E00E94292921
:100C40000C940E21682F8CE693E00E9429296AE318
:100C50008CE693E00E94292981E080933503089572
:100C6000EF92FF920F93CF93DF93CDB7DEB72C9720
:100C70000FB6F894DEBF0FBECDBF83E50E942206FB
:100C800088E2E82E83E0F82EF70160818BE894E09B
:100C90000E948A20F70141815281052E000C660BCB
:100CA000770B0CE022E0CE0101960E94450EBC01BC
:100CB00083E894E00E949E20F70143815481052E31
:100CC000000C660B770B22E0CE0101960E94450EC8
:100CD000BC0189E794E00E949E20F701458156817E
:100CE000052E000C660B770B23E0CE0101960E94C7
:100CF000C90DBC0181E794E00E949E20F701478165
:100D00005085052E000C660B770B23E0CE01019673
:100D10000E94C90DBC0189E694E00E949E200E94B9
:100D20001B062C960FB6F894DEBF0FBECDBFDF9129
:100D3000CF910F91FF90EF900895CF93DF93CDB7B0
:100D4000DEB79E012B5F3F4FF901419151919F0109
:100D500060E870E08FE792E00E94DB316FE772E0BD
:100D60008CE693E00E943029DF91CF910895CF93D4
:100D7000DF93E0913303F0913403E60FF11DC0815E
:100D8000D1810E946320DF93CF9388E192E09F930B
:100D90008F930E949D060F900F900F900F90DF9100
:100DA000CF910895CF93E0913303F0913403E60F90
:100DB000F11DC0810E9463201F92CF9388E192E0D1
:100DC0009F938F930E949D060F900F900F900F900E
:100DD000CF9108950F931F93CF93DF938C01EB0175
:100DE00084E50E9422060E94410FBC018FE092E040
:100DF0000E9437046091290370912A0387E092E0F2
:100E00000E9437048FEF91E00E94632001151105C5
:100E100019F487EC91E002C08CEC91E01F930F93E2
:100E20009F938F930E949D060E942B0FBC0184EF1D
:100E300091E00E94370460912B0370912C038AEE9D
:100E400091E00E94370480EE91E00E9463200F90B1
:100E50000F900F900F90209719F487EC91E002C04B
:100E60008CEC91E0DF93CF939F938F930E949D062C
:100E70000E94720380910E0190910F01DC01ED91AF
:100E8000FC910480F581E02D09950F900F900F9053
:100E90000F9081111BC0C0913103D0913203DD2727
:100EA00081ED91E00E946320DF93CF9388E192E08F
:100EB0009F938F930E949D060F900F900F900F901D
:100EC000DF91CF911F910F910C941B060E9472032A
:100ED000BC0187ED91E00E943704DDCFCF93DF9313
:100EE000CDB7DEB7C058D1090FB6F894DEBF0FBE3C
:100EF000CDBF9E012B573F4FF901419151919F0169
:100F000060E870E0CE0101960E94DB31BE016F5FA8
:100F10007F4F80E090E00E94EA06C058DF4F0FB696
:100F2000F894DEBF0FBECDBFDF91CF910895CF9370
:100F3000DF93CDB7DEB7C058D1090FB6F894DEBF46
:100F40000FBECDBF9E012B573F4FF90141915191EB
:100F50009F0160E870E0CE0101960E94DB3160E005
:100F600070E0CE0101960E94EA06C058DF4F0FB62E
:100F7000F894DEBF0FBECDBFDF91CF910895809171
:100F80002803823611F40C94D805863611F40C949B
:100F9000E905803719F488E791E004C08F3641F401
:100FA00087E591E09F938F930E9497070F900F9092
:100FB000089525E632E03F932F938F9389E48F9332
:100FC0000E9469130F900F900F900F900895FC01ED
:100FD000848195810C942D36CF93DF93EC010E9490
:100FE000E707CE01DF91CF910C942D36FC01908163
:100FF0000180F281E02DF8948181892B8183228107
:10100000892F809528232283A7E0B0E01197F1F77C
:10101000218182238183A3E2B0E01197F1F78081DF
:101020007894EFECF0E03197F1F7982381E009F440
:1010300080E00895FC012081A181B281611103C08B
:1010400085E0E1E402C087E3EAE0F89412969C911F
:101050001297322F3095932312969C9312971196E4
:101060009C911197922B11969C93119794E0E99F74
:10107000F001112435973197F1F712969C91129750
:10108000922B12969C937894E4E08E9FC0011124D9
:1010900005970197F1F70895DC012C911196ED91D8
:1010A000FC911297F8948181922F909589238183E6
:1010B00078948DE743E050E0815021F1DA011197F7
:1010C000F1F730813223C1F3F8948281892382833E
:1010D0008181822B81837894ABE7B7E01197F1F798
:1010E000F89481819823918383E191E00197F1F74E
:1010F0008081282381E009F080E07894E3E6F6E03F
:101100003197F1F70895EF92FF920F931F93CF93CA
:10111000DF937B018C01055F1F4F65E5C8010E94CD
:101120008322E70188E0E80EF11C6991C8010E9462
:101130008322CE15DF05C9F7DF91CF911F910F9163
:10114000FF90EF900895BF92CF92DF92EF92FF92BF
:101150000F931F93CF93DF93CDB7DEB76A970FB688
:10116000F894DEBF0FBECDBF7C016C0126E0C20E3D
:10117000D11C8E010F5F1F4FB801C6010E94B9221A
:10118000F70184819581892B39F582E090E00E94F6
:101190009535F70122813381FC0131832083F701EA
:1011A00095838483892BC1F41F930F9387E692E084
:1011B0009F938F931F9285E48F930E946913F70189
:1011C000848195810F900F900F900F900F900F904A
:1011D000009729F410E0BDC0F70184819581B60124
:1011E0000E942C238115904809F0ACC0F7010481BE
:1011F000158144EBB601C8010E944027F8018081A7
:1012000091810B960E94F607B82EF801808191819A
:101210000E943727BB20F1F2F801808191810E9462
:101220003727B601F801808191810E948308F80177
:101230008081918168EB0B960E948322AE014E5E05
:101240005F4FB601C8010E945C27B82E882311F2B7
:101250008E898F3721F08FE78E8B81E001C080E08F
:101260009C89992311F01C8A02C0882389F14EE4DD
:10127000B601C8010E944027F801808191816C89E4
:101280000B960E948322F801808191816D890B96D3
:101290000E948322F801808191816E890B960E94C1
:1012A0008322F801808191810E943727B601F801DD
:1012B000808191810E948308F8018081918168E496
:1012C0000B960E948322F801808191810E9437272A
:1012D00081E08C8B4EE4B601C8010E944027F801E2
:1012E000808191816C890B960E948322F801808114
:1012F00091816D890B960E948322F80180819181F2
:101300006E890B960E948322F801808191810E9450
:101310003727BB2009F45ECFB601F70184819581A0
:101320000E94A0226EEE72E080E090E00E94992878
:10133000B601F701848195810E942C238115904884
:1013400009F448CFB601F701848195810E94A0225B
:1013500011E0F7018785181721F0612FC7010E945E
:10136000DC22812F6A960FB6F894DEBF0FBECDBF88
:10137000DF91CF911F910F91FF90EF90DF90CF9071
:10138000BF90089508958F929F92AF92BF92CF928F
:10139000DF92EF92FF920F931F93CF93DF936C0135
:1013A0007B014A0159010E94FA208C01C0E0C8016A
:1013B0000E9404210A9738F50E945C1F882331F0AF
:1013C0000E94FA208C01F601099502C0C11104C0E7
:1013D000F7010995C0E004C0C03811F4F401099583
:1013E000D0914103DD2339F010924103F7010995B3
:1013F000F501099509C0CF5F63E070E080E090E0FF
:101400000E949928D4CFD0E08D2FDF91CF911F91EA
:101410000F91FF90EF90DF90CF90BF90AF909F9093
:101420008F900895CF930E94541F8130910521F130
:101430008230910551F1892B89F5C09128036C2FD9
:1014400089E392E00E94E02743E050E060E070E032
:1014500090E00E946E1F2FEB37E049EB54E06BE504
:1014600072E18AEF95E00E94C309811117C060E024
:101470008C2FCF910C94570F60E082E60E94570F9B
:101480000E945B12CF910C94D80560E086E60E9422
:10149000570F0E945B12CF910C94E905CF910895EC
:1014A00080912B0390912C030895809129039091B2
:1014B0002A030895CF93DF93CDB7DEB79E01255F52
:1014C0003F4F49855A856F8178858D819E810E9425
:1014D000DB31DF91CF9108958F929F92AF92BF92AF
:1014E000CF92DF92EF92FF921F93CF93DF93F62E6E
:1014F000FC01D585148110920A040E94D3284B0167
:101500005C0184EA8093BC008091690390916A0336
:101510002091BC0027FD19C00097D1F30E94D32869
:10152000AB01BC01481959096A097B09809169031B
:1015300090916A03A0E0B0E0481759076A077B075B
:1015400018F30E941621C1E00CC08091B900887F79
:10155000883031F08091B900887F803109F094C0E3
:10156000C0E0C0930A04C111A1C0110F1093BB00C9
:101570000E94D3284B015C0184E88093BC008091D9
:10158000690390916A032091BC0027FD19C0009760
:10159000D1F30E94D328AB01BC01481959096A094B
:1015A0007B098091690390916A03A0E0B0E048173D
:1015B00059076A077B0718F30E941621C1E01AC079
:1015C0008091B900887F8831A9F08091B900887F27
:1015D000803481F0C091B900C87F8091B900887FC4
:1015E000803231F08091B900887F883409F05BC087
:1015F0000E942D21C0930A04C11158C0DF29D09345
:10160000BB000E94D3286B017C0184E88093BC005E
:101610008091690390916A032091BC0027FD19C055
:101620000097D1F30E94D328AB01BC014C195D098E
:101630006E097F098091690390916A03A0E0B0E090
:10164000481759076A077B0718F30E941621C1E063
:1016500012C08091B900887F883269F0C091B900CA
:10166000C87F8091B900887F803319F40E942D21B2
:1016700002C00E941621C0930A04C11117C00E9423
:101680002D2180930A0412C08091B900887F88338D
:1016900031F4C091B900C87F0E94162162CFC09179
:1016A000B900C87F5ECF0E941621A4CFDF91CF91F1
:1016B0001F91FF90EF90DF90CF90BF90AF909F90E1
:1016C0008F9008950F931F93CF938C01C62F0E9484
:1016D0006C0A6C2F6460C8010E946C0A6C2F6B7FCF
:1016E000C8010E946C0A83EC90E00197F1F7CF915A
:1016F0001F910F9108950F931F93CF93DF938C0148
:10170000C62FD42F607F642B0E94620B80E1C89F9C
:10171000B00111246D2BC801DF91CF911F910F9162
:101720000C94620BFC0182859185DF0125E1929F7B
:10173000A00DB11D1124A80FB11D51966C938F5FA0
:1017400082878089811104C0CF0141E00E947B0B18
:1017500080E090E008958F929F92AF92BF92CF92D7
:10176000DF92EF92FF920F931F93CF93DF937C0151
:10177000FB0191838083C0E0D0E0CC24C39420E0BF
:1017800030E0A90100811181D801DC90DD2049F110
:10179000B0E2DB1203C02097F9F027C08DE2D81623
:1017A000D1F080ED8D0D8A30E0F4AAE0B0E00E9427
:1017B000F1344D2DDD0C550B9A01205331094901AF
:1017C000330FAA08BB08A5019401260F371F481F35
:1017D000591F219601C0C12C0F5F1F4F1183008339
:1017E000D1CFCD2B11F4F182E082C11008C0662761
:1017F0007727CB01621B730B840B950B02C0CA01C8
:10180000B901DF91CF911F910F91FF90EF90DF9081
:10181000CF90BF90AF909F908F9008950F931F939C
:10182000209142032634F9F49B01AC0122573C4736
:101830004F4F5F4F57FD02C0E9E101C0E7EEAAE557
:10184000B0E00E94F1340E2FEE0F110B220B330B80
:10185000600F711F821F931F22E330E040E050E0D1
:101860000E94D23405C09B01AC01305A4F4F5F4FEC
:1018700057FD03C0E0E0F1E002C0E0E0FFEFAAE0C6
:10188000B0E00E94F1348F01FF0F220B330B600F89
:10189000711F821F931F20E032E040E050E00E9461
:1018A000D234C9011F910F9108959C01FB019081D1
:1018B000892F8F7D11F09E3231F481E0621773071A
:1018C00019F080E0089581E008953F924F925F9271
:1018D0006F927F928F929F92AF92BF92CF92DF9240
:1018E000EF92FF920F931F93CF93DF9300D0CDB76A
:1018F000DEB74C018B016DE270E0C8010E94B63684
:101900005C01BE016F5F7F4FC8010E94AB0B2B01D2
:101910003C0169817A81C8010E94550C882311F02D
:1019200080E054C06EE270E0C8010E94B6360097B5
:1019300081F18C010F5F1F4FBE016F5F7F4FC801A8
:101940000E94AB0B6B017C0139807A81632DC80149
:101950000E94550C8111E4CFA701960199E0220F56
:10196000331F441F551F9A95D1F7132D101B6AE0A2
:10197000C62ED12CE12CF12C115070F0CA01B90106
:101980006B5F7F4F8F4F9F4FA70196010E94D2340C
:10199000F3CF20E030E0A9017301620189E0CC0CB3
:1019A000DD1CEE1CFF1C8A95D1F7AB2829F4C20E72
:1019B000D31EE41EF51E04C0C21AD30AE40AF50AB7
:1019C000F401C082D182E282F38281E00F900F9015
:1019D000DF91CF911F910F91FF90EF90DF90CF900B
:1019E000BF90AF909F908F907F906F905F904F903F
:1019F0003F9008958F929F92AF92BF92FF920F9364
:101A00001F93CF93DF9300D000D0CDB7DEB78C010A
:101A1000CE0101960E94650CF82E8823A9F1298138
:101A20003A814B815C81809142038634C1F457FD39
:101A300002C0EDE201C0E3EDA2E3B0E00E94F134A8
:101A40008E2EEE0F9908AA08BB08680D791D8A1D15
:101A50009B1D2AE530E040E050E00E94D234223065
:101A600080E838078FEF480758074CF02115E0E869
:101A70003E07410551052CF02FEF3FE702C022E061
:101A800030E8F801318320838F2D0F900F900F9055
:101A90000F90DF91CF911F910F91FF90BF90AF906A
:101AA0009F908F9008958F929F92AF92BF92EF92E6
:101AB000FF920F931F93CF93DF9300D000D0CDB749
:101AC000DEB78C017B018CE792E00E94C136892B46
:101AD00041F481E090E8F80191838083FF24F3943E
:101AE00048C0B701CE0101960E94650CF82E8823EC
:101AF00009F43FC029813A814B815C818091420386
:101B00008634D9F430544109510957FD02C0EDE241
:101B100001C0E3EDA2E3B0E00E94F1348E2EEE0F9F
:101B20009908AA08BB08680D791D8A1D9B1D2AE526
:101B300030E040E050E00E94D234DA01C901905612
:101B4000A109B1098230F0E89F07FFEFAF07BF0797
:101B500044F0811520E89207A105B1052CF49C0101
:101B600005C022E030E802C02FEF3FE7F8013183E3
:101B700020838F2D0F900F900F900F90DF91CF91BA
:101B80001F910F91FF90EF90BF90AF909F908F901B
:101B900008958F929F92AF92BF92DF92EF92FF9241
:101BA0000F931F93CF93DF93EC01D02E77FD03C0EB
:101BB00080E2888309C08DE2888370956095509596
:101BC00041955F4F6F4F7F4F4A015B0139E0B594FC
:101BD000A794979487943A95D1F77401213061F0D6
:101BE000223029F404E610E0ECE6F2E009C008EE49
:101BF00013E0E4E6F2E004C00AE010E0E4E7F2E01B
:101C00009A01AB01317044275527D8010E94F13465
:101C1000DC01CB019F5FAF4FBF4F29E0B595A79582
:101C2000979587952A95D1F7BC018017910730F0D9
:101C300074018FEFE81AF80A60E070E07F936F9309
:101C4000FF92EF92FF93EF930D2D10E001501109D9
:101C50001F930F93CE0101969F938F930E945A0A70
:101C60008DB79EB70A960FB6F8949EBF0FBE8DBF74
:101C7000CE01DF91CF911F910F91FF90EF90DF90F8
:101C8000BF90AF909F908F900895CF92DF92EF9288
:101C9000FF920F931F93CF93DF93D82FC92F122F4B
:101CA000CA019058029748F46FE572E08D2F9C2F7F
:101CB0000E949D318D2F9C2F2DC080914203863430
:101CC00009F59A01AB0122573C474F4F5F4F57FD33
:101CD00002C0E9E101C0E7EEAAE5B0E00E94F134FC
:101CE000CE2EEE0FDD08EE08FF086C0D7D1D8E1D5B
:101CF0009F1D22E330E040E050E00E94D234BA0160
:101D0000A90103C0505A6F4F7F4F212F8D2F9C2F59
:101D10000E94C90DDF91CF911F910F91FF90EF901D
:101D2000DF90CF900895EF92FF920F931F93CF9380
:101D3000DF93FC01A081B181109709F441C0EC014F
:101D4000ED91FC9111970680F781E02DCD01099569
:101D50008823B1F17E01F1EFEF0EF11CD7018C91D8
:101D60008D3370F188819981DC01ED91FC910084C3
:101D7000F185E02D09958C018115904809F1B80194
:101D8000CE0102960E94D314B801CE01805B9F4F12
:101D90000E94D31460E070E0CE0182569F4F0E94F3
:101DA000D314FE01E351FF4FCC57DF4F8C859D8547
:101DB000AE85BF8580839183A283B383F7011082B0
:101DC000DF91CF911F910F91FF90EF900895209197
:101DD00031033091320381E02430310529F028307D
:101DE000310511F080E008950895CF92DF92EF92CF
:101DF000FF92CF93DF934817590708F4CA019C015B
:101E0000DB010E948E3520E13EE040E050E00E9480
:101E1000D23469017A01E9010E94E70E882321F09A
:101E2000CC27DD27CC19DD09E0912203F0912303B3
:101E3000EE5BFF4F80819181A281B381CA0FDB1FCE
:101E4000D0931303C0931203DF91CF91FF90EF90D3
:101E5000DF90CF900895E0912203F09123038081D9
:101E600091810E94C121882349F0E0912203F091E1
:101E70002303EE5BFF4F82819381089580E090E819
:101E80000895E0912003F0912103808191810E94C7
:101E9000C121882349F0E0912003F0912103EE5BFA
:101EA000FF4F82819381089580E090E8089590919A
:101EB0002803981309C02091310330913203255033
:101EC00031092330310528F4109232031092310386
:101ED00002C0662381F0809328038F3651F481E09D
:101EE00090E890932A038093290390932C03809386
:101EF0002B030C947A150895CF93DF93C2E4D3E0BB
:101F000080912203909123036D8D02960E941815F3
:101F100080912203909123036E8D805B9F4F0E94DE
:101F2000181580912203909123036F8D82569F4F45
:101F30000E941815809120039091210368A10296B8
:101F40000E941815809120039091210369A1805B64
:101F50009F4F0E94181580912003909121036AA140
:101F600082569F4FDF91CF910C94181547E250E0B5
:101F700068E372E082E493E00E948B310C947C0F62
:101F800060E08FE60E94570FE8E2F3E081E090E81E
:101F9000928381839483838386E690E0968385830E
:101FA00080E09AE090878783089580911E03909146
:101FB0001F030C94042180911C0390911D030C9429
:101FC0000421FC0177FF03C071956195710935E02B
:101FD000759567953A95E1F76635710514F065E5F5
:101FE00070E077FF02C060E070E02AEA31E0261B73
:101FF000370BA081B1810E948635DC01CB0129E03D
:10200000B595A795979587952A95D1F79183808364
:102010000C947A15FC0177FF03C0719561957109E5
:102020009B0145E0359527954A95E1F72B39310518
:1020300014F02AE930E037FF02C020E030E02A59EE
:102040003D4FA081B1810E948635DC01CB0129E0A2
:10205000B595A795979587952A95D1F7823020E871
:1020600092072FEFA207B2077CF0811520E89207B4
:10207000A105B10524F4BC01499734F002C06FEF0B
:102080007FE77183608304C089E190E0918380835E
:102090000C947A157F928F929F92AF92BF92CF92BB
:1020A000DF92EF92FF920F931F93CF93DF93809174
:1020B0000C0190910D01DC01ED91FC910190F081FA
:1020C000E02D0995909103038917A9F080930303EC
:1020D000811103C08BE192E002C082E292E09F9303
:1020E0008F9389E292E09F938F930E946E070F90E7
:1020F0000F900F900F90809128038F3649F481E064
:1021000090E090933203809331037724739401C05D
:10211000712C80912B0390912C039058029708F416
:102120006DC1E0912203F0912303808191810E948F
:10213000C121882309F462C1E0912003F0912103B9
:10214000808191810E94C121811108C08091280362
:10215000823609F453C1803709F450C180910103DC
:10216000909102030E940421EC010E94DB0F7C018C
:102170000E94D50F6C01E0912203F0912303EE5BE6
:10218000FF4F80809180A280B380E0912003F09186
:102190002103EE5BFF4F028113810E94FA20E09140
:1021A0003103F0913203EA30F10508F02EC1EC5C06
:1021B000FF4F0C94803590930203809301037110BC
:1021C00024C1109200031092FF0260912B037091C2
:1021D0002C0320914F0330915003260F371F2A15EF
:1021E0003B057CF5B60188E592E00E94CE1E809109
:1021F0002803863621F4B70188E592E00CC080916F
:10220000290390912A030F96801791070CF0EAC0DA
:10221000B7018CE291E00E94CE1E80910A0190915C
:102220000B018454944009F44EC08091FF029091B8
:102230000003892B19F085E090E041C084E090E034
:102240003EC08091510390915203860F971FA816AC
:10225000B9060CF0C7C0B70188E592E00E94CE1E17
:10226000B6018CE291E00E94CE1E80912803863652
:1022700049F08091290390912A030F9708171907B5
:102280000CF0B0C0809108019091090184549440F1
:1022900059F4809165038823B1F0809106019091F3
:1022A00007018454944079F08091FF0290910003DB
:1022B000892B19F086E090E002C083E090E09093D3
:1022C000320380933103809131039091320303975D
:1022D000029708F09AC080912603882321F0B70165
:1022E00088E097E008C080912703882309F48DC017
:1022F000B60184E893E00E94CE1E87E090E079C0AA
:1023000021E02093260390931D0380931C0360918A
:102310002F0370913003AE0180915D0390915E03B5
:102320000E94F50E84E090E0909332038093310395
:10233000209112033091130380912B0390912C0371
:102340008217930774F480912803863609F45DC0E0
:102350008091290390912A034097081719070CF0E0
:1023600054C0C53BD10528F03093150320931403C6
:1023700039C088E090E03DC021E02093270390938E
:102380001F0380931E0360912D0370912E03AE01F5
:1023900080915B0390915C030E94F50E83E090E0D6
:1023A00090933203809331032091120330911303F1
:1023B00080912B0390912C032817390764F48091A6
:1023C0002803863611F18091290390912A034096C3
:1023D00080179107D4F4C53BD10548F0309317031B
:1023E0002093160310923203109231030EC089E03D
:1023F00090E0909332038093310307C01092320330
:102400001092310377247394A9CEDF91CF911F915D
:102410000F91FF90EF90DF90CF90BF90AF909F9083
:102420008F907F90089590932C0380932B031092AC
:102430002703109226030E94111C0E944A100C943C
:102440007A15CF93DF93EC018091290390912A03B1
:10245000D0932A03C09329038C1B9D0B97FF03C0C5
:102460009195819591098130914024F01092270334
:10247000109226030E94111C0E944A10809128038A
:10248000803771F480912403909125038C1B9D0B60
:1024900097FF03C09195819591098138910524F0AA
:1024A000DF91CF910C947A15DF91CF91089580E060
:1024B00008950895089560E087E00E94602180916A
:1024C00028038F36E9F03CF4823661F08636D9F481
:1024D00086E293E009C0803761F08437A1F48FEF82
:1024E00092E013C089E193E00E9493218FE193E091
:1024F0000CC089E193E00E94932181E193E005C043
:102500008DE093E002C082EF92E00E9493219091CF
:10251000510480915204981730F460E287E494E00B
:102520000E942929F4CF0895EF92FF920F931F93F1
:10253000CF93DF93CDB7DEB7A0970FB6F894DEBF89
:102540000FBECDBF8C01F62EE42E211103C06CE22C
:102550000E9429298E2D0E2C000C990B9F93EF922F
:102560008F2D0F2C000C990B9F93FF9288ED92E01A
:102570009F938F93CE0101967C019F938F930E942E
:10258000B931B701C8010E9430290FB6F894DEBFF7
:102590000FBECDBFA0960FB6F894DEBF0FBECDBF65
:1025A000DF91CF911F910F91FF90EF9008950C94C0
:1025B0002D360C942D360C942D360C942D360F930D
:1025C0001F93CF93DF938B01EA01FC0160818EE3BF
:1025D00092E00E94E02787FD08C0C80FD11D87FD4B
:1025E000DA95C8010E9464316883DF91CF911F9111
:1025F0000F9108950F931F93CF93DF938B01EA01FF
:10260000FC01608183E492E00E94E02787FD08C01E
:10261000C80FD11D87FDDA95C8010E946431688317
:10262000DF91CF911F910F910895DF92EF92FF926A
:102630000F931F93CF93DF9300D0CDB7DEB77B010D
:102640008A01FC01D0806D2D80E291E00E94E0279C
:10265000F1E6DF1215C0F701D8011A9680818823B0
:1026600071F181340CF087538295807F9181913490
:1026700014F0975301C09053892B8D933296EECF6F
:102680009AE6D91211C0B701CE0101960E94FA0C48
:102690008823A9F089819A8125E0959587952A95C7
:1026A000E1F7F80181870BC087FD09C0080F111DF4
:1026B00087FD1A95C7010E946431F80160830F906D
:1026C0000F90DF91CF911F910F91FF90EF90DF90CE
:1026D00008956F927F928F929F92AF92BF92DF92F6
:1026E000EF92FF920F931F93CF93DF93CDB7DEB797
:1026F00029970FB6F894DEBF0FBECDBF6B8C7C8CD4
:1027000084E40E942206698D81E693E00E948A207B
:102710008BE593E00E9463201F928A8D8F9388E15E
:1027200092E09F938F930E949D0684E593E09F9390
:102730008F930E949D068E01035E1F4F0F900F9096
:102740000F900F900F900F90D12C8CE4E82E83E027
:10275000F82E91E5A92E93E0B92EF301ED0DF11DB0
:102760008081882309F45BC0863679F17CF4843655
:1027700009F047C0480182E0880E911CF801818170
:102780008F9380818F93BF92AF9234C08337A1F033
:102790008437B9F54801F2E08F0E911CF8014081B1
:1027A0005181052E000C660B770B0CE021E0CE0169
:1027B00001960E94450E1AC04801F2E08F0E911C4E
:1027C000F80181818F93808112C04801F2E08F0E61
:1027D000911CF80140815181052E000C660B770B8E
:1027E0000CE023E0CE0101960E94C90D9F938F93C8
:1027F000FF92EF920E949D060F900F900F900F9006
:102800008401D394F301ED0DF11D8081882309F437
:10281000A4CF6CE28CE693E00E9429299ECF6DE55F
:102820008CE693E00E9429290E941B0629960FB688
:10283000F894DEBF0FBECDBFDF91CF911F910F91F6
:10284000FF90EF90DF90BF90AF909F908F907F9020
:102850006F9008952F923F924F925F926F927F9266
:102860008F929F92AF92BF92CF92DF92EF92FF92A0
:102870000F931F93CF93DF93FC0184819581A681F1
:10288000B78180879187A287B387C080D180E2809B
:10289000F380C482D582E682F782408351836283CB
:1028A00073830089118922893389048B158B268BC8
:1028B000378B84849584A684B784808A918AA28A7F
:1028C000B38A218C308CC32DD0E024013501401A0D
:1028D000510A620A730A480C591C6A1C7B1C022CA0
:1028E00004C0B594A794979487940A94D2F7481893
:1028F00059086A087B084801590104C0B594A79497
:10290000979487942A94D2F7480C591C6A1C7B1C14
:10291000032C04C075956795579547950A94D2F78F
:10292000440E551E661E771E5E0141E0A41AB108D2
:1029300004C0F594E794D794C794AA94D2F7C40C32
:10294000D51CE61CF71C04C0B595A79597958795EF
:102950003A94D2F78C0D9D1DAE1DBF1D229704C069
:102960003595279517950795CA95D2F7BC01CD01E6
:10297000601B710B820B930B648775878687978723
:10298000DF91CF911F910F91FF90EF90DF90CF904B
:10299000BF90AF909F908F907F906F905F904F907F
:1029A0003F902F900895AB01770F660B770BBA011C
:1029B00055274427FC01825B9F4F408351836283EC
:1029C0007383448355836683778340875187628707
:1029D00073874487558766877787408B518B628BD7
:1029E000738B448B558B668B778B7A96E817F90738
:1029F00021F708950F931F93CF93DF93EC01CB0141
:102A0000770FAA0BBB0B7727662700E010E0AB011E
:102A1000BC01CE01800F911F0E942A14065E1F4F39
:102A20000E341105A1F7DF91CF911F910F910895F9
:102A3000FC01862F880F8C5F808F618F82AB63AB28
:102A4000DF01A45BBF4F8C93E35BFF4F608308956E
:102A5000CF93DF93FC01EC01C45BDF4FDC01A35B90
:102A6000BF4F98E0908F82E0818F92AB83AB9883C9
:102A70008C93DF91CF9108950F931F93CF938C0187
:102A8000C62F80E090E00E94A834843011F4C03159
:102A900010F080E00CC084E1C89FB00111246255A1
:102AA0007E4F44E150E0C8010E94B03481E0CF91F4
:102AB0001F910F9108950F931F93CF938C01C62FF1
:102AC00080E090E00E94A834843011F4C03110F00E
:102AD00080E00CC084E1C89FB001112462557E4F94
:102AE00044E150E0C8010E94983481E0CF911F91E9
:102AF0000F91089549E050E06EE270E088E293E0C3
:102B00000E94B0348091290390912A039093250369
:102B100080932403089547E250E066E070E082E489
:102B200093E00E94B0340C947A15CF93DF93EA01BE
:102B30000E946021CE01DF91CF910C949321EF92FE
:102B4000FF920F931F93CF93DF93CDB7DEB72A97F2
:102B50000FB6F894DEBF0FBECDBF80910303811185
:102B600003C01091310301C012E080916A02811705
:102B700061F110936A021A3078F4812F90E0880F87
:102B8000991FFC01EA5AFE4F40815181FC01EE5B26
:102B9000FE4FE080F18006C08BE3E82E83E0F82E44
:102BA0004CE353E063E080E00E949515C7010E946A
:102BB00093219091510480915204981730F460E26F
:102BC00087E494E00E942929F4CF80910103909139
:102BD00002030E9404219C0111110FC00E94DB0F0F
:102BE0008C010E94D50F0817190718F40E94DB0FFB
:102BF00002C00E94D50F9C0116C08DEF810F82305C
:102C000090F0183011F0193039F484EB90E0AC01F9
:102C1000421B530B9A0107C015501230F0F520915A
:102C2000FF02309100032F3F5FEF3507B1F1C9017B
:102C300060E17EE00E946C357B01ECE3F0E0C901CD
:102C4000BF010E946C359F938F93CB01BF010E94FF
:102C50006C359F938F93FF92EF928EE293E09F9358
:102C60008F938E010F5F1F4F1F930F930E94B931F7
:102C70000FB6F894DEBF0FBECDBFEF2819F4029750
:102C80000E5F1F4F63E094E1981B892F0E94602123
:102C9000B80187E494E00E9430292A960FB6F89490
:102CA000DEBF0FBECDBFDF91CF911F910F91FF907F
:102CB000EF9008954DEE52E060E080E00E9495159F
:102CC00049E153E061E080E00E9495158091400366
:102CD00080FD03C046E253E002C046EE52E062E0EF
:102CE00080E00E94951581E00E94B22182E00C9460
:102CF000B221EF92FF920F931F93CF93DF93CDB743
:102D0000DEB729970FB6F894DEBF0FBECDBF7A01AC
:102D10000E946021C7019058029728F480EE92E04B
:102D20000E94932121C0A701FF0C660B770B09E0DD
:102D300021E0CE0101967C010E94450EF701019031
:102D40000020E9F70E2D0E1B0A5F10E010173CF46F
:102D500060E287E494E00E94920B1F5FF7CFB70117
:102D600087E494E00E94302929960FB6F894DEBFDC
:102D70000FBECDBFDF91CF911F910F91FF90EF90CC
:102D800008958091400381FF20C00E94FA2083FDB6
:102D90000CC080910E0190910F01DC01ED91FC912E
:102DA0000480F581E02D099501C080E090914003F9
:102DB000292F2170821749F0882311F0916001C0FA
:102DC0009E7F909340030E945A160E94410FAC01CF
:102DD00061E086E00E9479164091290350912A0310
:102DE00061E08CE00E9479168091400380FF0CC066
:102DF00080910E0190910F01DC01ED91FC91008416
:102E0000F185E02D099502C00E942B0FAC0162E014
:102E100086E00E94791640912B0350912C038091FB
:102E2000400380FF02C041E050E862E08CE00C9477
:102E30007916089508959F92AF92BF92CF92DF9234
:102E4000EF92FF920F931F93CF93DF93CDB7DEB72F
:102E500061970FB6F894DEBF0FBECDBF982E8B01E1
:102E60006A017901FB018281938101978C30910580
:102E700028F4FC01E856FE4FA08002C0A12CB12C22
:102E800080916B02811104C06CE2C7010E94292964
:102E900010926B026BE7C7010E94292921E0492D9E
:102EA00069E6C7010E94941220E04A2D64E7C70139
:102EB0000E94941220E0F801408163E6C7010E945D
:102EC000941220E0F801418162E6C7010E94941249
:102ED00020E0F801428166E6C7010E94941220E0DA
:102EE000F801448168E6C7010E94941220E0F801CD
:102EF000408564E6C7010E94941220E0F8014681F3
:102F000060E7C7010E949412C114D10469F0F60170
:102F10008081882349F069E472E0C7010E9430296A
:102F2000B601C7010E943029F8018481958101977B
:102F300031F420E0478168E7C7010E949412F8014C
:102F4000848195810297B1F46FE472E0C7010E9419
:102F50003029BE016F5F7F4FC80109960E94B922D8
:102F6000BE016F5F7F4FC7010E94302962E2C70137
:102F70000E942929F801848195810297C9F5A189C8
:102F8000F0E2AF02D0011124AD010B2E000C660B54
:102F9000770B809142038634D1F4B7FF02C047EE2D
:102FA00001C049E12AE530E00E948E35042F440F2C
:102FB000110B220B330B600F711F821F931F22E333
:102FC00030E040E050E00E94D234BA01A90108E0AC
:102FD00023E0CE0101960E94C90D66E572E0C701AB
:102FE0000E943029BE016F5F7F4FC7010E943029C8
:102FF0006DE7C7010E94292961960FB6F894DEBFDC
:103000000FBECDBFDF91CF911F910F91FF90EF9039
:10301000DF90CF90BF90AF909F900895FB012385E4
:103020003485AB014F5F5F4FBC0180810C941B174F
:10303000CF92DF92EF92FF920F931F93CF937C0179
:10304000FC018081682F70E06530710514F084E028
:1030500072C0F7019181692F70E06730710514F03B
:1030600085E069C0F70162817381603108F062C058
:103070006115710521F06930710534F460C091115A
:1030800007C08823F1F004C091111BC062E070E01A
:103090001F928F931F929F937F936F938CE592E083
:1030A0009F938F9387E08F9385E48F930E9469139A
:1030B0008DB79EB70A960FB6F8949EBF0FBE8DBF10
:1030C0003CC0615071096C30710530F4FB01E85669
:1030D000FE4F008110E002C000E010E0F701C48064
:1030E000D580B601C8010E941D27C82F811117C0C5
:1030F000DF92CF921F930F938DE592E09F938F9372
:1031000088E08F9385E48F930E9469138DB79EB7F3
:1031100008960FB6F8949EBF0FBE8DBF15C092E003
:10312000C916D10489F4F7016681603169F070E055
:1031300089E001C086E00E940B27C0E005C0811134
:10314000C0CF61E070E0A4CF8C2FCF911F910F9181
:10315000FF90EF90DF90CF900895EF92FF920F9342
:103160001F93CF93DF93EC018A819B8101978C3071
:10317000910530F4FC01E856FE4F008110E002C0DA
:1031800000E010E0CE010E9454267C01892B09F456
:1031900044C08885811141C00130110561F0E8F11A
:1031A00004301105D0F5B801CE010E942E28D701B8
:1031B0008D939C9332C061E070E0CE010E942E2876
:1031C0008C01D7018D919C91892B29F46A817B8197
:1031D00082E00E940B278A819B81069761F4D801C7
:1031E000ED91FC910680F781E02DC8010995F7016A
:1031F0001183008312C0D7018D919C91FC01118332
:103200000083EF50FF4F2FEF2083DF91CF911F916D
:103210000F91FF90EF900C94930EDF91CF911F913F
:103220000F91FF90EF9008958F929F92AF92BF926F
:10323000CF92DF92EF92FF920F931F93CF93DF9382
:10324000EC0188819981009709F487C0DC01ED9138
:10325000FC910084F185E02D09958C018115B0E881
:103260009B0709F47AC0BC01CE0102960E94FA14B1
:10327000B801CE01805B9F4F0E94FA147E01FCEEE4
:10328000EF0EF11CD7018C9181508C93843071F436
:10329000FE01EC57FF4F84859585A685B785E759D4
:1032A000FF4F80839183A283B38342C0811140C0CA
:1032B000FE01EC57FF4F84849584A684B7846E0189
:1032C000EDEECE0ED11CF60180819181A281B381F9
:1032D000A5019401281B390B4A0B5B0B4C3151059E
:1032E0004CF4453EFFEF5F074CF420E030E045EE44
:1032F0005FEF04C020E030E04BE150E0A0EBB4E031
:103300000E94F1348E0102561F4FAB01BC01C8016F
:103310000E942A14065E1F4F0E151F05B1F7D60135
:103320008D929D92AD92BC92139783E0F8018083B9
:10333000888199810E94C121811117C0CE01DF913E
:10334000CF911F910F91FF90EF90DF90CF90BF90A2
:10335000AF909F908F900C94930EFE01EF50FF4F13
:1033600080818F3F29F38F5FE2CFDF91CF911F9153
:103370000F91FF90EF90DF90CF90BF90AF909F9014
:103380008F900895CF92DF92EF92FF920F931F9349
:10339000CF93DF9300D000D000D0CDB7DEB7F82EAA
:1033A000E92ED62EC72E7F936F939F938F9380E63F
:1033B00092E09F938F938CE08F9389E48F930E9488
:1033C00069130EE415E00FB6F894DEBF0FBECDBF53
:1033D00046E050E0B801CE0101960E948B31698130
:1033E0007A818F2D9E2D0E949431892B41F46B811F
:1033F0007C81ED81FE818D2D9C2D099513C00A5F86
:103400001F4F95E00C3F190719F785E692E09F934F
:103410008F931F9287E58F930E9469130F900F90EF
:103420000F900F9026960FB6F894DEBF0FBECDBF5B
:10343000DF91CF911F910F91FF90EF90DF90CF9090
:103440000895CF92DF92EF92FF921F93CF93DF9375
:1034500000D0CDB7DEB77C016B01BC0189E495E0FB
:103460000E94C136892BF1F0B70183E495E00E94F8
:10347000C136892BC9F0BE016F5F7F4FC7010E9423
:10348000AB0B162F69817A81C7010E94550C8111FF
:103490000DC0123058F4612F6170F60160830E94F4
:1034A0008B1504C061E0F9CF60E0F7CF0F900F906B
:1034B000DF91CF911F91FF90EF90DF90CF90089513
:1034C000AF92BF92CF92DF92EF92FF920F931F9332
:1034D000CF93DF9300D0CDB7DEB75C018B01BE0187
:1034E0006F5F7F4F0E94AB0B6B017C0169817A811A
:1034F000C5010E94550C811113C0C114D10481E093
:10350000E806F10434F08FEF9FEFF8019183808398
:1035100005C0F7FC05C0F801D182C0820E948B155E
:103520000F900F90DF91CF911F910F91FF90EF902F
:10353000DF90CF90BF90AF9008959C01CB01B9016F
:103540000E94FA0C81110C948B1508959C01CB01FB
:10355000B9010E94530D81110C948B1508950F939E
:103560001F93CF93DF9300D000D0CDB7DEB78B0190
:10357000BC01CE0101960E94650C8823E1F04981CF
:103580005A816B817C81423090E859079FEF69072F
:1035900079074CF04115E0E85E07610571052CF0F4
:1035A0004FEF5FE702C042E050E8F80151834083EB
:1035B00081110E948B150F900F900F900F90DF914B
:1035C000CF911F910F9108950F931F93CF93DF9386
:1035D0008B01EB01C370DD270E946431F801FF27E6
:1035E000EE0FFF1FEA58FE4F0190F081E02D60833F
:1035F000033028F0809120039091210304C0809132
:10360000220390912303C130D10539F0C230D10596
:1036100039F0CD2B49F4029605C0805B9F4F02C064
:1036200082569F4F0E941815DF91CF911F910F91E5
:103630000C948B15FC018081809342030E945A16E2
:103640000C948B150F931F93CF93DF9300D0CDB7BE
:10365000DEB7182F092F682F792FCE0101960E940F
:10366000530D8823E9F0809128038636A9F486E17A
:1036700095E09F938F930F931F9387E295E09F931D
:103680008F9383E395E09F938F930E946E070FB60D
:10369000F894DEBF0FBECDBF89819A810E941312BC
:1036A0000F900F90DF91CF911F910F910895CF93BD
:1036B000DF93EC0160E088810E94570F86E195E07E
:1036C0009F938F93DF93CF9380EF94E09F938F939B
:1036D00083E395E09F938F930E946E078DB79EB70B
:1036E00008960FB6F8949EBF0FBE8DBFDF91CF91A5
:1036F00008950F931F93CF93DF9300D0CDB7DEB71C
:10370000182F092F682F792FCE0101960E94530D93
:10371000882391F1809128038037A9F489819A81C7
:103720002091290330912A03821B930B97FF03C03A
:103730009195819591098536910544F489819A8105
:103740000E94211219C086E195E002C08FEF94E03B
:103750009F938F930F931F9385EF94E09F938F9385
:1037600083E395E09F938F930E9497070FB6F89499
:10377000DEBF0FBECDBFE2CF0F900F90DF91CF9194
:103780001F910F9108950F931F93CF93DF93C0E183
:10379000D7E20BE811E08CE693E00E941526892B16
:1037A00061F4C8010197F1F72197A9F78FEF9FEF17
:1037B000DF91CF911F910F9108958CE693E0DF91F7
:1037C000CF911F910F910C94F3251F93CF93DF930B
:1037D000EC01188210E00E94C31B1D31C1F08D372F
:1037E0009105A9F08F3F2FEF920789F08C32910558
:1037F00081F08A33910569F09C012D7F20323105DB
:1038000051F3FE01E10FF11D80831F5FE4CF80E0E3
:1038100001C081E0C10FD11D1882DF91CF911F91AE
:1038200008952F923F924F925F926F927F928F9264
:103830009F92AF92BF92CF92DF92EF92FF920F933F
:103840001F93CF93DF9300D000D000D0CDB7DEB769
:1038500080912803823661F0803751F0863609F076
:10386000EBC181E090E890932A0380932903E4C19F
:10387000E0912903F0912A03FE83ED83CF01905854
:10388000029738F481E090E890932C0380932B0307
:10389000D3C18091200390912103DC01AC57BF4F2D
:1038A0001C964D915D916D917C911F97AD81BE816C
:1038B000A61BB70BB0930503A09304038E529F4F32
:1038C000FC01C484D584E684F7846701FF24D7FC17
:1038D000F094EF2CD0920B03C0920A0380913F0327
:1038E000E0914503F0914603FA83E9832090430376
:1038F00030904403E0916703F0916803FC83EB830D
:103900008C3321F08F5F80933F0397C08091220317
:10391000909123038E5B9F4FFC0140805180628019
:10392000738010923F038091310390913203809015
:10393000060390900703A0900803B0900903892B19
:1039400009F069C0CD01B7FF04C0882799278A1BF9
:103950009B0B20914D0330914E03821793070CF07F
:103960004CC091E01A161B060CF090E081E0181490
:1039700019041A041B040CF080E098133AC020913B
:103980002B0330912C03E981FA812E173F0714F4A1
:10399000CD0102C080E090E02216330614F080E0F2
:1039A00090E0A901ED81FE814E1B5F0BEB81FC8154
:1039B0004E175F0714F080E090E04D815E81421B5E
:1039C000530BEB81FC814E175F0714F080E090E011
:1039D000B3011A161B062CF0A9015C5F46155705AA
:1039E000D4F01A161B06CCF43450621773079CF0FF
:1039F00014C0CD01880F991F10C0B501A401E3E0E8
:103A00007595679557954795EA95D1F78827992732
:103A1000841B950B02C080E090E0AC01990F660B0F
:103A2000770B840E951EA61EB71E809206039092F9
:103A30000703A0920803B092090320914703309135
:103A400048030E948635DC01CB0169E0B595A79556
:103A5000979587956A95D1F78230F0E89F07FFEF39
:103A6000AF07BF0744F0811520E89207A105B10513
:103A70003CF45C0109C052E0A52E50E8B52E04C00C
:103A8000AA24AA944FE7B42EB0920D03A0920C037F
:103A9000A0914903B0914A03209106033091070396
:103AA00040910803509109030E94FC34DC01CB01D2
:103AB00039E0B595A795979587953A95D1F78230D6
:103AC00030E893073FEFA307B30744F0811540E8C0
:103AD0009407A105B1052CF48C0105C002E010E8A3
:103AE00002C00FEF1FE710930F0300930E03A09186
:103AF0004B03B0914C03A70196010E94FC34DC01FA
:103B0000CB0129E0B595A795979587952A95D1F78B
:103B1000823050E895075FEFA507B50744F081159F
:103B200060E89607A105B1052CF4BC0105C062E070
:103B300070E802C06FEF7FE770931103609310038A
:103B40006501BB0CEE08FF08ED81FE81CF010F2E51
:103B5000000CAA0BBB0B8C0D9D1DAE1DBF1D012EB5
:103B6000000C220B330B800F911FA21FB31F8B0180
:103B7000770F220B330B080F191F2A1F3B1F8B8156
:103B80009C81820D931D8E179F072CF41F01EB81E2
:103B9000FC812E1A3F0A89819A81AC01EB81FC815C
:103BA0004E1B5F0BED81FE81E417F50724F48B813A
:103BB0009C818E0F9F1F0230F0E81F07FFEF2F0739
:103BC0003F0754F0011540E814072105310584F43E
:103BD0000215130534F008C053E0251650E83506E9
:103BE00054F0422D832D24C080179107CCF015C0CE
:103BF0004FEF5FE702C042E050E88417950784F07A
:103C0000023060E816076FEF2607360764F00115EB
:103C100070E81707210531054CF4402F812F08C0AB
:103C2000482F892F05C042E080E802C04FEF8FE7A0
:103C300040932B0380932C0326960FB6F894DEBF97
:103C40000FBECDBFDF91CF911F910F91FF90EF90ED
:103C5000DF90CF90BF90AF909F908F907F906F90AC
:103C60005F904F903F902F90089580912003909106
:103C700021030E94141980912203909123030E9432
:103C8000141980910E0190910F01DC01ED91FC91CE
:103C90000084F185E02D09958115904859F48091B3
:103CA0000E0190910F01DC01ED91FC910680F781EE
:103CB000E02D09940895CF93DF9310923203109270
:103CC00031038FE68093280360E08FEA94E00E943E
:103CD0003B268091200390912103892B21F582EFCF
:103CE00090E00E949535EC0102960E942815CE01C5
:103CF000805B9F4F0E942815CE0182569F4F0E94E5
:103D00002815FE01E451FF4F8FEF808320E131E061
:103D10003983288335968083D0932103C093200371
:103D2000CE010E94930E8091220390912303892B50
:103D300021F582EF90E00E949535EC0102960E94F9
:103D40002815CE01805B9F4F0E942815CE01825618
:103D50009F4F0E942815FE01E451FF4F8FEF808393
:103D600020E131E03983288335968083D093230383
:103D7000C0932203CE010E94930E0E94351E109222
:103D800027031092260310921F0310921E03109215
:103D90001D0310921C03DF91CF91089568177907D6
:103DA00068F4861B970B2091FF02309100032817BF
:103DB000390720F4909300038093FF0208951F9326
:103DC000CF93DF93CDB7DEB764970FB6F894DEBF1D
:103DD0000FBECDBF80E090E00E94A834843009F08F
:103DE00045C00E94E42647E250E066E070E082E4CD
:103DF00093E00E9498340E947C0F49E050E06EE20C
:103E000070E088E293E00E949834809129039091B9
:103E10002A03909325038093240361E08091280373
:103E20000E94570F10E0612FCE0101960E945B1592
:103E3000882381F1412FBE016F5F7F4FCB010E942C
:103E40001818882329F0CE0101960E94AD180CC0E5
:103E5000FE01319685E1815011F01192FCCF612F66
:103E6000CE0101960E943C151F5FDDCF0E94C00F5E
:103E70000E94B60F0E94E42685E692E09F938F93FE
:103E800083E08F9387E58F930E9469130F900F90C3
:103E90000F900F9064960FB6F894DEBF0FBECDBFA3
:103EA000DF91CF911F9108952FB7F89480913B0334
:103EB00090913C032FBF08950E94541F20913D0311
:103EC00030913E038217930731F090933E03809325
:103ED0003D0381E008958091410308959C019FB7BF
:103EE000F89430933C0320933B0370933A03609320
:103EF000390350933803409337039FBF08951F92AF
:103F00000F920FB60F9211242F933F934F935F930D
:103F10006F937F938F939F93AF93BF93EF93FF9391
:103F2000E3B123B1269531E02327822F817090E001
:103F3000880F991FE170E3278E2B209166039091E3
:103F40003603E82F880FFF0B9F7084E0989FE00DE9
:103F5000F11D1124222319F0E85EF94F02C0E4504C
:103F6000FA4FE491E093360320913603207321F158
:103F700080913B0390913C03203111F4019601C0E4
:103F800001972091370330913803409139035091C4
:103F90003A032817390714F4CA0104C08417950797
:103FA0000CF4C90190933C0380933B030E94FA20D8
:103FB0009093560480935504FF91EF91BF91AF9178
:103FC0009F918F917F916F915F914F913F912F9131
:103FD0000F900FBE0F901F9018951F920F920FB663
:103FE0000F9211242F933F934F935F936F937F937F
:103FF0008F939F93AF93BF93EF93FF934F9909C014
:1040000081E0809341030E94FA20909356048093AC
:104010005504FF91EF91BF91AF919F918F917F9147
:104020006F915F914F913F912F910F900FBE0F9025
:104030001F901895CF92DF92EF92FF921F93CF932C
:10404000DF93CDB7DEB7EC970FB6F894DEBF0FBEA7
:10405000CDBF7C016B0119821F8E0E94C31B8B3761
:10406000910559F0BC018AE00E940B271EC010E0A8
:104070008F8D81110EC01123C1F0CE0101960E94D7
:10408000E51B8823A1F3CE014F960E94E51B182F54
:10409000EFCF8981882379F3A601BE01615E7F4F4E
:1040A000CE010196F7010995E6CFEC960FB6F8948C
:1040B000DEBF0FBECDBFDF91CF911F91FF90EF907C
:1040C000DF90CF900895CF93DF93EC01809135037B
:1040D000811102C06CE201C06BE78CE693E00E94A4
:1040E00029291092350362E28CE693E00E94292987
:1040F000DF93CF930E949D0662E28CE693E00E94DC
:1041000029290F900F906AE38CE693E0DF91CF911D
:104110000C942929CF93C62F0E94632062E28CE67B
:1041200093E00E9429296C2F8CE693E00E942929B4
:1041300062E28CE693E0CF910C942929CF93DF9330
:10414000EB010E946320BE018CE693E0DF91CF91EA
:104150000C943029CF92DF92EF92FF921F93CF936E
:10416000DF9300D000D0CDB7DEB76B01142F0E94D3
:1041700022061123D9F0760184E0E80EF11C44E018
:1041800050E0B601CE0101960E948B31EC81F0E047
:10419000EE0FFF1FE659FE4F0190F081E02D6B817D
:1041A00089819A81099511506701E3CF0E941B060E
:1041B0000F900F900F900F90DF91CF911F91FF9074
:1041C000EF90DF90CF90089582E493E090933403D2
:1041D0008093330348E160E974E083E40C94AA20FF
:1041E0008CE693E00E94152621E0892B09F420E05B
:1041F000822F08950E94D32828EE33E040E050E05B
:104200000E943B35C9010895CF93DF93EC010E94D2
:10421000FA208C1B9D0BDF91CF91089542E050E076
:1042200063E672E08CE693E00C94BA2585E692E0B2
:104230009F938F938BE08F9385E48F930E946913F4
:1042400081E080930904ECEBF0E0108284E4808349
:104250000F900F900F900F900895CF92DF92EF92F2
:10426000FF92CF93DF930E94D3286B017C0184E9F6
:104270008093BC00C0916903D0916A039091BC0007
:10428000892F807194FF15C02097C1F30E94D32815
:10429000AB01BC014C195D096E097F09CE01A0E09C
:1042A000B0E0481759076A077B0720F30E941621E0
:1042B00081E0DF91CF91FF90EF90DF90CF90089554
:1042C000CF93DF93CDB7DEB728970FB6F894DEBF54
:1042D0000FBECDBF98E0E2E8F1E0DE01119601905B
:1042E0000D929A95E1F790914F04961710F46FEFA5
:1042F000690F6093500480935104FE013196E60FDC
:10430000F11DE60FF11D6081680F606840E087E4F1
:1043100094E028960FB6F894DEBF0FBECDBFDF91B4
:10432000CF910C947B0BCF93DF93CDB7DEB765971E
:104330000FB6F894DEBF0FBECDBFBC01CE01019613
:104340000E949D31BE016F5F7F4F87E494E00E9421
:10435000302965960FB6F894DEBF0FBECDBFDF9152
:10436000CF910895682F82E10E9460216FED87E46C
:1043700094E00E94920B6091420387E494E00C94D5
:10438000920B009739F0DC01ED91FC910480F581EE
:10439000E02D099480E0089540E061E087E494E036
:1043A0000E947B0B4091530490915204E92FF0E05E
:1043B000E95BFB4F80E050E24817B1F025E1829FB6
:1043C000B001112420E030E0291750F4D901A60FE4
:1043D000B71FA95BBB4F51965C932F5F3F4FF4CF44
:1043E000118A8F5F7596E8CF8BE39FE10197F1F714
:1043F0000895CF93DF93823028F090914C04986019
:1044000090934C0480934F041092500410925104E6
:1044100062E370E080E090E00E949928609154048B
:1044200087E494E00E946C0A68EE73E080E090E01C
:104430000E94992860E387E494E00E94620BCBE439
:10444000D6E4CE010197F1F760E387E494E00E949F
:10445000620B2197F1F760E387E494E00E94620B1E
:1044600083E592E00197F1F760E287E494E00E942F
:10447000620B60914C04606240E087E494E00E942B
:104480007B0B84E080934D0440E06CE087E494E093
:104490000E947B0B0E94CC2182E080934E0440E07E
:1044A00066E087E494E00E947B0B40E062E087E4F2
:1044B00094E00E947B0B8BE39FE10197F1F7DF9182
:1044C000CF91089510920904449A459AE9EBF0E0DF
:1044D00080818E7F808380818D7F8083E8EBF0E018
:1044E00088E4808384E48093BC008CE0808388EE41
:1044F00093E090936A0380936903E7E4F4E0158204
:1045000084850C94F921EF92FF920F931F93CF9320
:10451000DF937C01062FC8E0D0E011E061E0802F3E
:10452000812309F460E0C7010E941A08110F219746
:10453000A9F7DF91CF911F910F91FF90EF90089510
:104540000F931F93CF93DF93EC018B0188819981A7
:104550000E943727B801888199810E948308888149
:10456000998164E40B96DF91CF911F910F910C9488
:104570008322CF93DF93FB01DC019B01205F3F4F40
:10458000ED019C9192959F709A3010F0995C01C05A
:10459000905D9083119698819F709A3010F0995C8D
:1045A00001C0905D91833296E217F30749F7FB0152
:1045B000108ADF91CF910895DF92EF92FF920F93CF
:1045C0001F93CF93DF93CDB7DEB761970FB6F89403
:1045D000DEBF0FBECDBF7C01D62E8E010F5F1F4FF9
:1045E000B80106960E94B922D7011F96DC921F9748
:1045F0001296ED91FC911397DD2061F01F930F93BC
:1046000086851F928F9386E692E09F938F931F92E9
:1046100089E40CC01F930F9386851F928F9386E6C3
:1046200092E09F938F9382E08F9387E58F930E9410
:1046300069130FB6F894DEBF0FBECDBF61960FB6FB
:10464000F894DEBF0FBECDBFDF91CF911F910F91C8
:10465000FF90EF90DF900895CF93DF93CDB7DEB753
:1046600029970FB6F894DEBF0FBECDBFAE014F5FE6
:104670005F4F0E945C27882331F08B81882319F0DB
:1046800089819A8102C080E090E829960FB6F8945B
:10469000DEBF0FBECDBFDF91CF910895AF92BF9225
:1046A000CF92DF92EF92FF920F931F93CF93DF93FE
:1046B000CDB7DEB7A1970FB6F894DEBF0FBECDBF62
:1046C0007C015B016A01FB0184818823B9F0F70159
:1046D00064817581082E000C990B01978C3091052F
:1046E00030F4FC01E856FE4F808190E002C080E08B
:1046F00090E00E941D27882309F498C010E0612FE4
:10470000CE0101960E945B15882371F1F701848127
:1047100095812D813E818217930721F58130910586
:10472000C9F0029719F58A858823A1F028E0215065
:1047300088F0822F90E0F701E80FF91FAAE0B0E0BF
:10474000AC0FBD1FA80FB91F31858C91381779F3B5
:1047500080E001C081E0F70126819F81291302C01A
:10476000811104C01F5FCBCF6FEF01C0612FF60135
:104770006083118267FD07C0F5018381811156C0F6
:10478000C7010E945B15F5018281882309F44AC0A4
:10479000F70184819581029709F044C05601FFEF2B
:1047A000AF1ABF0A8DE0F7013696DE0155960190EB
:1047B0000D928A95E1F7F7018681803119F48CE238
:1047C00094E002C080E090E02EE831E03A83298353
:1047D0009C838B831E821D8281E0888B88E0FE0192
:1047E0007896DE01179601900D928A95E1F71F8663
:1047F000CE0101960E94A308882329F0CE010196DC
:104800000E94650402C080E090E8AC01990F660B3D
:10481000770B09E023E0C5010E94450ECE01019609
:104820000E94E707B601C7010E940E18A1960FB6B5
:10483000F894DEBF0FBECDBFDF91CF911F910F91D6
:10484000FF90EF90DF90CF90BF90AF9008951F92B0
:104850000F920FB60F9211242F933F934F935F93B4
:104860006F937F938F939F93AF93BF93EF93FF9338
:104870008CE693E00E944529FF91EF91BF91AF91A3
:104880009F918F917F916F915F914F913F912F9168
:104890000F900FBE0F901F9018951F920F920FB69A
:1048A0000F9211242F938F939F93EF93FF93E09197
:1048B0007C03F0917D038081E0918203F09183037A
:1048C00082FD12C09081809185038F5F8F7320914C
:1048D0008603821751F0E0918503F0E0E459FC4F24
:1048E000958F8093850301C08081FF91EF919F9107
:1048F0008F912F910F900FBE0F901F901895CF930F
:1049000060913D04662321F06091400481E06827B6
:104910008EE394E00E94CB2480914103882329F107
:1049200010924103C09140038C2F8C7F80934003F1
:104930000E945A160E94C11642E050E060E070E00A
:1049400080E090E00E946E1F22E13AE04FEB54E0DD
:104950006AE576E182EC99E00E94C309C0934003C6
:104960000E945A16CF910C94C116CF910895FC0164
:104970008785089580E090E80895DC01ED91FC9131
:104980000084F185E02D099521E08115904809F416
:1049900020E0822F08950F931F93CF938C01C62F91
:1049A000DC01ED91FC910280F381E02D09958C17DB
:1049B00059F0F801C2838091B000CC2311F08062DD
:1049C00001C08F7D8093B000CF911F910F9108950A
:1049D000FC0182810895FFCF833081F028F481307B
:1049E00099F08230A1F008958730A9F08830B9F0AD
:1049F0008430D1F4809180008F7D03C0809180004D
:104A00008F7780938000089584B58F7702C084B536
:104A10008F7D84BD08958091B0008F7703C0809111
:104A2000B0008F7D8093B00008950F931F93CF93B4
:104A3000DF93DC0113962C91139730E0F901E658CF
:104A4000F94F8491F901EE5AF94FD491F901E25CE2
:104A5000F94FC491CC23D1F0162F12960C918111ED
:104A60000E94EC24EC2FF0E0EE0FFF1FE059F94F0D
:104A7000A591B4919FB7F894011304C08C91D0957F
:104A8000D82302C0EC91DE2BDC939FBFDF91CF9146
:104A90001F910F910895CF93DF93282F30E0F901F4
:104AA000E658F94F8491F901EE5AF94FD491F90182
:104AB000E25CF94FC491CC2391F081110E94EC2467
:104AC000EC2FF0E0EE0FFF1FEC5CF94FA591B491D5
:104AD000EC91ED2381E090E021F480E002C080E0E1
:104AE00090E0DF91CF910895CF93DF93EC018B811C
:104AF0000E944B252A8130E041E02817390709F44C
:104B000040E0842FDF91CF910895CF93DF93EC01A4
:104B10008B810E944B2521E0892B09F420E08A81BA
:104B20008227DF91CF9108953FB7F8948091BD041B
:104B30009091BE04A091BF04B091C00426B5A89B7B
:104B400002C02F3F99F43FBFBA2FA92F982F882773
:104B5000820F911DA11DB11DBC01CD0142E0660F68
:104B6000771F881F991F4A95D1F708950196A11DB7
:104B7000B11DE9CFCF92DF92EF92FF920F931F9377
:104B8000CF93DF936C017A018B01C0E0D0E0CE15AA
:104B9000DF0581F0D8016D918D01D601ED91FC9179
:104BA0000190F081E02DC6010995892B11F0219625
:104BB000EECF7E01C701DF91CF911F910F91FF9042
:104BC000EF90DF90CF900895FC01538D448D252FF9
:104BD00030E0842F90E0821B930B541710F0CF9697
:104BE000089501970895FC01918D828D981761F0C9
:104BF000828DDF01A80FB11D5D968C91928D9F5F14
:104C00009F73928F90E008958FEF9FEF0895FC01BE
:104C1000918D828D981731F0828DE80FF11D858D71
:104C200090E008958FEF9FEF0895FC01918D228D04
:104C3000892F90E0805C9F4F821B91098F73992789
:104C4000089580E090E0892B29F00E94F0208111E6
:104C50000C9400000895089580E090E00895FC0110
:104C600080850895FC01628308950C942D360C9480
:104C70002D360C942D361F93CF93DF93EC01162F16
:104C800068878E819F81DC01ED91FC910190F0811C
:104C9000E02D0995112321F00E94FA209B838A833D
:104CA000DF91CF911F910895FC018081823088F4BB
:104CB0008181823070F482819381019789309105DE
:104CC00040F4880F991FFC01EE5DFD4F80819181BA
:104CD000089580E090E008950F931F93CF93DF93A2
:104CE0008C010E945426EC01892B09F468C0D8017C
:104CF00012962D913C911397C90101978C30910523
:104D000008F05DC0FC01E856FE4F80818230C9F199
:104D1000833029F1813009F052C0E881F9812630D1
:104D2000310509F442C080819181B1E080319B0757
:104D300009F445C020E131E031832083EF50FF4F7B
:104D40002FEF20830097D9F1DC01ED91FC910280D7
:104D5000F381E02DDF91CF911F910F91099488810C
:104D60009981B4E084349B0751F1009739F0DC015C
:104D7000ED91FC910680F781E02D099584E494E0A3
:104D800011C088819981B4E081349B07C1F00097FC
:104D900039F0DC01ED91FC910480F581E02D09955D
:104DA00081E494E0998388830AC0B1E0E031FB0795
:104DB00031F080E191E099838883CF01C3CFDF9107
:104DC000CF911F910F9108950F931F93CF93DF936E
:104DD000CDB7DEB764970FB6F894DEBF0FBECDBF78
:104DE00081E089838A8300E010E01C830B83CE017D
:104DF00001960E946C260F5F1F4F00311105A9F725
:104E000064960FB6F894DEBF0FBECDBFDF91CF9191
:104E10001F910F9108957F936F932EE532E03F939A
:104E20002F938F9385E48F930E9469130F900F90B7
:104E30000F900F900F900F9008959C0161307105B5
:104E400039F42250310981E02230310578F00DC06B
:104E50006230710529F481E02130310531F406C05A
:104E6000672B19F481E0232B09F080E008950B965D
:104E70000E944C0891E0811101C090E0892F0895B3
:104E8000EF92FF921F93CF93DF93EC017B01142FDE
:104E9000888199810E943727B701888199810E9472
:104EA000830888819981612F0B96DF91CF911F91A3
:104EB000FF90EF900C9483222F923F924F925F923B
:104EC0006F927F928F929F92AF92BF92CF92DF921A
:104ED000EF92FF920F931F93CF93DF9300D01F9217
:104EE000CDB7DEB78C015B015B834A8382E08983A7
:104EF0002A01E9E04E0E511C4EEBB501C8010E949B
:104F000040276A807B807301F801C080D180FBE07C
:104F1000CF0ED11C98E0892E912C312C2224239481
:104F2000C6010E94F60781113228220C81E0881AFE
:104F30009108B1F7F70131927F01E415F50521F7EA
:104F4000F801808191810E94372799E080E091509B
:104F500099F0F30151913F0148E0682F6527282F10
:104F600030E035952795822F60FF02C08CE88227BC
:104F70005695415091F7EBCFEA81FB8190859817C8
:104F800039F0F981F150F983F111B6CF80E001C019
:104F900081E00F900F900F90DF91CF911F910F91B3
:104FA000FF90EF90DF90CF90BF90AF909F908F9049
:104FB0007F906F905F904F903F902F90089508954D
:104FC000AC019FEF9F5FFA01E90FF11D97FDFA9584
:104FD0002081222321F02613F5CF892F08958FEF0A
:104FE00008950895CF93DF9390E0FC01EE5AF94FB6
:104FF0002491FC01E25CF94F8491882361F190E0F7
:10500000880F991FFC01EA59F94FC591D491FC0111
:10501000E059F94FA591B491611109C09FB7F89477
:105020008881209582238883EC912E230BC06230E7
:1050300061F49FB7F8948881322F30958323888359
:10504000EC912E2B2C939FBF06C08FB7F894E8816C
:105050002E2B28838FBFDF91CF910895EF92FF927F
:105060000F931F93CF93DF938C01FC018481958173
:105070008130910519F0029761F151C084E090E010
:105080006230710589F40E949535EC01F801F780D2
:10509000168180E391E09983888362E0812F0E94EA
:1050A000F227FA821B833DC00E949535EC01F8017E
:1050B000878116812AE331E0398328838A831B8321
:1050C00060E0CE010E94152561E0812F0E94F22749
:1050D00028C0F8018681803119F0E12CF12C04C040
:1050E0008CE2E82E84E0F82E80E190E00E94953575
:1050F000EC01F80191892EE831E039832883FB82A5
:10510000EA821D821C8281E08F87DE011696399625
:1051100088E001900D928A95E1F79E8702C0C0E079
:10512000D0E0CE01DF91CF911F910F91FF90EF90D2
:1051300008958F929F92AF92BF92CF92DF92EF929B
:10514000FF926B017C010E9494254B015C01C1140C
:10515000D104E104F104F1F00E949425DC01CB01BB
:1051600088199909AA09BB09883E9340A105B10590
:1051700070F381E0C81AD108E108F10828EE820E28
:1051800023E0921EA11CB11CC114D104E104F1045E
:10519000F1F2E2CFFF90EF90DF90CF90BF90AF9011
:1051A0009F908F9008952FB7F8946091B9047091F3
:1051B000BA048091BB049091BC042FBF08951F9244
:1051C0000F920FB60F9211242F933F938F939F93BB
:1051D000AF93BF938091B9049091BA04A091BB049E
:1051E000B091BC043091B80423E0230F2D3720F494
:1051F0000196A11DB11D05C026E8230F0296A11D31
:10520000B11D2093B8048093B9049093BA04A0937D
:10521000BB04B093BC048091BD049091BE04A091E6
:10522000BF04B091C0040196A11DB11D8093BD04BF
:105230009093BE04A093BF04B093C004BF91AF91FC
:105240009F918F913F912F910F900FBE0F901F90C4
:105250001895DC01ED91FC910190F081E02D09940D
:105260006115710579F0FB0101900020E9F7319794
:10527000AF01461B570BDC01ED91FC910280F381DD
:10528000E02D099480E090E00895FC01848DDF0119
:10529000A80FB11DA35ABF4F2C91848D90E00196A9
:1052A0008F739927848FA689B7892C93A089B18998
:1052B0008C91837080648C93938D848D981306C039
:1052C0000288F389E02D80818F7D80830895EF929D
:1052D000FF920F931F93CF93DF93EC0181E0888FB0
:1052E0009B8D8C8D981305C0E889F989808185FD97
:1052F00026C0F62E0B8D10E00F5F1F4F0F73112786
:10530000E02E8C8DE8120CC00FB607FCFACFE889AE
:10531000F989808185FFF5CFCE010E944529F1CF23
:105320008B8DFE01E80FF11DE35AFF4FF0829FB70E
:10533000F8940B8FEA89FB89808180620AC09FB74D
:10534000F894EE89FF896083E889F9898081837008
:10535000806480839FBF81E090E0DF91CF911F91B7
:105360000F91FF90EF900895CF93DF93EC01888D1C
:105370008823C9F0EA89FB89808185FD05C0A88959
:10538000B9898C9186FD0FC00FB607FCF5CF8081DF
:1053900085FFF2CFA889B9898C9185FFEDCFCE0129
:1053A0000E944529E7CFDF91CF91089508951F927C
:1053B0000F920FB60F9211240F900FBE0F901F90F7
:1053C0001895CDB7DEB7E097DEBFCDBF789484B532
:1053D000826084BD84B5816084BD85B5826085BDF1
:1053E00085B5816085BD80916E00816080936E007F
:1053F0001092810080918100826080938100809171
:105400008100816080938100809180008160809321
:1054100080008091B10084608093B1008091B000E1
:1054200081608093B00080917A00846080937A00DC
:1054300080917A00826080937A0080917A00816006
:1054400080937A0080917A00806880937A0010922D
:10545000C10061E083E00E94F22781E28093B00006
:105460008BE08093B1008DE78093B3008EE380934F
:10547000B4008091B00080628093B00064EF71E06E
:1054800080E090E00E9499288091B0008F7D809309
:10549000B00064EF71E080E090E00E949928809174
:1054A000B00080628093B00064EF71E080E090E033
:1054B0000E9499288091B0008F7D8093B0008FEF7B
:1054C00080936A0212E0109340030E9462221092BD
:1054D00056041092550484E00E94F9210E94CC21C8
:1054E00062E088E00E94F22762E089E00E94F227F1
:1054F00062E087E00E94F2278091680085608093D7
:10550000680080916B00836080936B0080916D00D8
:10551000806880936D00E0917C03F0917D0310839F
:10552000E0917C03F0917D031082E0917803F0918B
:1055300079031082E0917A03F0917B0380E180830C
:1055400010928403E0918003F091810386E08083D0
:10555000E0917E03F0917F03808180618083E09100
:105560007E03F0917F03808188608083E0917E03D9
:10557000F0917F03808180688083E0917E03F091C9
:105580007F0380818F7D80830E945B1E0E94DF1ECF
:105590000E94D3286B017C010E94D328C616D7062F
:1055A000E806F90619F40E947F24F6CF0E945A16E5
:1055B0000E949F152CEFA22E20E0B22E3E0122E188
:1055C000620E711C0E947F240E94D3280091020168
:1055D000109103012091040130910501DC01CB0100
:1055E000801B910BA20BB30B883E9340A105B10524
:1055F00008F483C00E94D3286093020170930301D2
:1056000080930401909305010E94351E8091270329
:10561000882309F4EAC380913103909132038330E7
:10562000910509F4E2C3099709F4DFC3E09122036D
:10563000F0912303EC57FF4F80899189A289B389A8
:105640004485558566857785481759076A077B071E
:105650000CF08FC34489558966897789841795072B
:10566000A607B7070CF485C38D01E0901603F090F0
:1056700017036801CE18DF0890902D0380902E0349
:105680000115F0E81F0709F077C30E94D50F853890
:10569000934008F08BC30E94111C009131031091BC
:1056A00032030E944A1011278091310390913203F6
:1056B0000817190731F060E070E080E090E00E9488
:1056C000EA0680912803843709F099C30E949F1548
:1056D0000E94C1160E945B1280910904882329F060
:1056E00085E10E94D9070E94622288E080935404D9
:1056F00060E087E494E00E946C0AFE0131967F012D
:105700008CE693E00E941526181619060CF02EC39D
:105710008CE693E00E94F325853509F47BC044F5BF
:10572000833409F483C07CF48D3051F31CF48A3047
:1057300039F305C3803221F3813409F000C381E0DD
:1057400080933D04DDCF8634D9F234F4853409F0FA
:10575000F6C200E010E0B9C0823509F4EDC283352D
:1057600009F0EDC20E94C00F0E9430068EE065C0B5
:105770008A3609F49FC08CF4833609F4A3C034F44C
:10578000813609F0DCC210923D04BACF843609F4A8
:10579000E0C0883609F4B1C1D2C2833709F450C0E1
:1057A0003CF58C3609F44FC08E3609F0C8C21F9202
:1057B00082E08F931F9283E78F931F921F921F9215
:1057C00084E08F9384E091E09F938F938CE091E04D
:1057D0009F938F9383E191E09F938F930E949D0607
:1057E0000E940E210FB6F894DEBF0FBECDBF88CF4A
:1057F0008437A9F0863709F0A2C284E093E0909341
:105800003403809333034BE060ED70E086E50E9443
:10581000AA2076CFECE6F2E083E19FEF5EC160E084
:1058200070E080E090E00E94EA066ACF0E94B60F26
:105830000E945A160E94E4208DE00E94D90760CF92
:105840000E9430065DCF8CE40E9422066BE58CE658
:1058500093E00E94292908E514E0D12C809152049C
:10586000F701D8019E2F9E19981718F49D919193D6
:10587000F9CFF701E80FF11D1082FF92EF92AFEF21
:10588000B0E0BF93AF930E949D060F900F900F90D2
:105890000F90F3E0DF1611F06CE201C06DE58CE6CD
:1058A00093E00E942929D3940B5E1F4F24E0D2126B
:1058B000D5CF3FC260E070E082EC99E10E941A20EF
:1058C0000E9430060E94E4201BCF60E0C8010E94C5
:1058D000C0340F5F1F4F011584E01807B1F70E9415
:1058E000E4260E94B60F0E94C00F96E0C92ED12C6C
:1058F00047E250E0B60182E493E00E94B0348601B2
:10590000085D1F4F9AE6C90ED11C49E050E0B8016E
:1059100088E293E00E94B0348091290390912A0399
:105920009093250380932403055F1F4F0C151D05DD
:1059300061F70E3A1140E1F664E080E090E00E94E9
:10594000C0340E945B1E8FE00E94D9070E94DF1EB8
:10595000D7CE84E60E9422066BE58CE693E00E9497
:1059600029298FEF8AA78BA78CA71DA6BE01665D8C
:105970007F4F8FED92E10E941A208AA58E3F61F43D
:105980008CA587FDD1C161E0811101C060E08FEA83
:1059900094E00E943B26C8C181E080936B02512CA9
:1059A000FE0176966F01652DC7010E945B15882365
:1059B00009F4BAC18AA58F3F41F48DA581110EC0AB
:1059C0008B819C81892B51F486C0082E000C990B89
:1059D000252D30E08217930709F07DC01E8A8B8049
:1059E0009C80C40101978C30910508F06DC0FC01CA
:1059F000E856FE4F008110E00115110509F464C05E
:105A0000C7010E945426FC01892B09F45DC02CA516
:105A100027FD11C00330110571F48081918161E08F
:105A2000211101C060E0DC01ED91FC910190F08159
:105A3000E02D099549C08BA5813009F045C00230A1
:105A4000110549F480819181DC01ED91FC91019077
:105A5000F081E02D2AC001301105E1F40190F081C0
:105A6000E02DB6E08B16910419F08081918101C080
:105A7000CF01DC01ED91FC910084F185E02D0995C9
:105A8000AC01990F660B770B09E023E0C6010E9479
:105A9000450E1AC003301105B9F480819181DC01F3
:105AA000ED91FC910280F381E02D09951F928F9377
:105AB000BF92AF92DF92CF920E94B9310F900F90B8
:105AC0000F900F900F900F902CE633E0A601B701D6
:105AD000852D0E941B17539466CF815011F091932E
