:1000000054C300007AC3000078C300000C948C2A0B
:1000100074C300000C94672A70C300006EC3000014
:100020006CC300006AC3000068C3000066C3000020
:1000300064C3000062C3000060C300005EC3000030
:100040000C9454255AC300000C94DB240C940D2509
:1000500054C3000052C3000050C300004EC3000050
:100060004CC300004AC30000FC18FC18091ACB1945
:100070009419FC18FC18FC189419CB192020202086
:10008000202000257500256400222563223A25647E
:10009000002C2256223A5B0022257322006C6F67E7
:1000A0004944006C6F6754797065002575006E7562
:1000B0006C6C002225732200537461746500526FCA
:1000C0006F6D54656D7000467269646765416E6E50
:1000D00000467269646765536574004672696467B7
:1000E0006554656D700042656572416E6E004265D3
:1000F0006572536574004265657254656D700022C7
:10010000257322004E3A7B2276223A222553222C56
:10011000226E223A222553222C2273223A25642C65
:100120002279223A25642C2262223A222563222C4B
:10013000226C223A222564227D00302E322E31306C
:1001400000756E6F6666696369616C002553207384
:10015000657420746F2025732025530046726964EE
:1001600067652074656D7000426565722074656D09
:1001700070004D6F64650062792074656D70657202
:1001800061747572652070726F66696C6500696E66
:100190002077656220696E746572666163650070C0
:1001A0006F735065616B006E65675065616B0070C1
:1001B0006F735065616B457374006E656750656160
:1001C0006B457374006573745065616B00640069FE
:1001D00000700062656572536C6F706500646966DB
:1001E00066496E74656772616C0062656572446928
:1001F0006666006873006C61680062656572536CC6
:100200006F706546696C740062656572536C6F77D8
:1002100046696C7400626565724661737446696C08
:100220007400667269646765536C6F706546696CCB
:100230007400667269646765536C6F7746696C74A5
:10024000006672696467654661737446696C740020
:100250006D6178436F6F6C54696D65466F7245735D
:1002600074006D61784865617454696D65466F729C
:1002700045737400636F6F6C5461726765744C00F2
:10028000636F6F6C54617267657448006865617470
:100290005461726765744C0068656174546172677B
:1002A0006574480069646C6552616E67654C0069ED
:1002B000646C6552616E67654800694D617845728E
:1002C00072004B64004B69004B70007069644D61B3
:1002D000780074656D705365744D61780074656D58
:1002E000705365744D696E0074656D70466F726D04
:1002F000617400636F6F6C45737400686561744569
:10030000737400667269646765536574006265653D
:1003100072536574006D6F6465001503000044122C
:100320000D030000E411030300006412FB02370315
:10033000C60EF3023903C60EE8020000820EDD028B
:100340003C038A0ED2023E038A0ECB026003CE0E1D
:10035000C8024003C60EC5024203C60EC2024403D1
:10036000C60EBA024603CE0EAF024803CE0EA4025A
:100370004A03CE0E98024C03CE0E8C024E03CE0ED4
:1003800080025003CE0E74025203CE0E620254035A
:10039000D60E50025603D60EF6015E03DE0EF301B2
:1003A0005F03DE0E41020000920E32020100920E47
:1003B00022020200920E15020300920E08020400AF
:1003C000920EFA010500920EEA010003DD0102031C
:1003D000D3010603D1010802CF010A02CD010C02AC
:1003E000C5010E01BA011001AF011201A7011401EC
:1003F0009F011601E8020004DD020101D20203019F
:10040000CB022503C8020502C5020702C202090287
:10041000BA020B03AF020D03A4020F0398021103EB
:100420008C0213038002150374021703620219057C
:1004300050021B0541021D0032021E0022021F0055
:100440001502200008022100FA012200F601230013
:10045000F301240000020400030001100302000065
:100460000302010006000400060500200605040042
:100470000302010023000100130200000305040031
:1004800003030410030503200000000046726964A2
:10049000676520646F6F7220255300636C6F73650E
:1004A00064006F70656E6564004300A200DC000AA2
:1004B000800000030001000200FE9A009AFF66001F
:1004C00066FF5802B0040104030304040000001492
:1004D00066616C73650074727565006E756C6C0096
:1004E00025642E253033640025642E2530326400C7
:1004F00025642E25303164006E756C6C00256468AF
:10050000253032646D2530326400556E6B6E6F7726
:100510006E20737461747573210054656D702E20A4
:10052000636F6E74726F6C204F464600446F6F723B
:10053000206F70656E0057616974696E6720666F21
:1005400072207065616B0049646C00496E76616C65
:100550006964206D6F6465002A2A2054657374698C
:100560006E67202A2A004F66660050726F66696CBB
:100570006500526F6F6D2020004D6F646500202D67
:100580002D2E2D00002074696D65206C6566740049
:100590005761697420746F2000696E6720666F72FE
:1005A000004865617400436F6F6C00436F6E737435
:1005B0002E004672696467652000426565722000FE
:1005C0000000000800020100000304070000000012
:1005D000000000000102040810204080010204080D
:1005E000102001020408102004040404040404047C
:1005F00002020202020203030303030300000000DD
:1006000023002600290000000000250028002B0000
:1006100000000000240027002A00426565720046A1
:1006200072696467650025532074656D7020736579
:100630007420746F20257320696E204D656E752EB1
:100640000054656D7020636F6E74726F6C207475EA
:10065000726E6564206F666620696E206D656E75CA
:100660002E004368616E67656420746F2070726F3E
:1006700066696C65206D6F646520696E206D656EBE
:10068000752E002020202020202020202020202027
:1006900000001104590B931B4522CC267B275F2AAF
:1006A0001A04700BAC1B4A22842711241FBECFEF03
:1006B000D8E0DEBFCDBF12E0A0E0B1E0ECECF9E69F
:1006C00002C005900D92AE35B107D9F724E0AEE532
:1006D000B2E001C01D92A539B207E1F716E0C0EA09
:1006E000D6E004C02297FE010E94E92FC239D1074B
:1006F000C9F70E948F270C94DA340C949A2722E2CF
:1007000031E0FC01318320830895FC016283089568
:10071000FC018281089522E231E0FC0131832083D3
:10072000089522E231E0FC01318320830C945125AD
:10073000089522E231E0FC01318320830C9451259D
:1007400008958F929F92AF92BF92CF92DF92EF92D5
:10075000FF920E94D02C0E94540F0E943D150E94CF
:10076000D1140E949E254B015C010E94DE2C6B017E
:100770007C010E949E25681979098A099B09C61681
:10078000D706E806F90618F00E94E72CF2CF0E947F
:10079000E22CFF90EF90DF90CF90BF90AF909F90B2
:1007A0008F9008950F931F930E94E72C0E940E2DA7
:1007B000811130C00E949E25009106011091070111
:1007C0002091080130910901601B710B820B930B82
:1007D000683E734081059105E8F00E949E25609374
:1007E00006017093070180930801909309010E940C
:1007F00019150E94A41A0E94AA15109119030E94AB
:1008000083188091190318130E94C2110E94511A73
:100810000E94042D0E942C131F910F910895C2CFA6
:1008200008958EE291E090935F0280935E021092B1
:100830006002089582E291E090935F0280935E02ED
:1008400008952FEF2F5FFC01E20FF11D27FDFA95B0
:100850003081332321F06313F5CF822F08958FEF7A
:1008600008952AE731E0FC0131832083089580E078
:100870000895DC01ED91FC910084F185E02D09954E
:1008800021E08115904809F420E0822F089580E04E
:1008900090E8089522EA31E0FC0131832083089535
:1008A00022EA31E0FC0131832083089522EA31E01D
:1008B000FC0131832083089522E231E0FC01318381
:1008C000208308952AE731E0FC01318320830895D5
:1008D00080E008952AE731E0FC01318320830C9405
:1008E0005125089522EA31E0FC01318320830C94E4
:1008F0005125089522EA31E0FC01318320830C94D4
:100900005125089522EA31E0FC01318320830C94C3
:100910005125089522E231E0FC01318320830C94BB
:10092000512508952AE731E0FC01318320830C949E
:1009300051250895FC012281622783810C944D2664
:100940000895CF93DF93EC018B810E947F2621E0F5
:10095000892B09F420E08A818227DF91CF910895C5
:10096000CF93DF93EC018B810E947F262A8130E0B8
:1009700041E08217930709F440E0842FDF91CF9183
:1009800008950F931F93CF93DF938B01EA01FC012E
:10099000608186E391E055DF87FD08C0C80FD11D57
:1009A00087FDDA95C8010E9476316883DF91CF9187
:1009B0001F910F9108950F931F93CF93DF938B0196
:1009C000EA01FC0160818CE391E03BDF87FD08C018
:1009D000C80FD11D87FDDA95C8010E947631688362
:1009E000DF91CF911F910F9108958AE791E0909345
:1009F00077028093760282E291E09093790280936D
:100A0000780282EA91E090937C0280937B020895C1
:100A1000613029F48250823058F080E008956230CD
:100A200019F48130D1F704C06111F7CF8111F5CFEE
:100A300081E008957F936F9323E431E03F932F93F8
:100A40008F9385E48F930E94F60D0F900F900F9077
:100A50000F900F900F9008957F936F9323E431E0F0
:100A60003F932F938F9389E48F930E94F60D0F90FD
:100A70000F900F900F900F900F900895A0E0B0E0AE
:100A8000E4E4F5E00C9423308C01FC018381813097
:100A900021F1823009F04AC0F80184810E94412A84
:100AA0007C0180E190E00E944E25EC01F801D784A2
:100AB00084E592E099838883FB82EA821D821C820E
:100AC00081E08F87B801695F7F4F48E050E0CE0139
:100AD00006960E94B531DE862BC084E090E062303D
:100AE00089F40E944E25EC01F801F58014812CEA6E
:100AF00031E03983288362E0812F0E941426FA8234
:100B00001B8316C00E944E25EC01F80185811481DB
:100B100026E931E0398328838A831B8360E0CE0194
:100B200009DF61E0812F0E94142602C0C0E0D0E0FE
:100B3000CE01CDB7DEB7E7E00C943F30FC018081F9
:100B4000823078F48181823060F4E281E150E930D2
:100B500040F4F0E0EE0FFF1FEC59FE4F80819181D1
:100B6000089580E090E00895A1E2B0E0EAEBF5E0BE
:100B70000C9424307C01162F211105C06CE249A38E
:100B80000E94342549A1842F992787FD90959F9332
:100B90004F931F921F9389E890E09F938F938E014C
:100BA0000F5F1F4F1F930F930E94F031B801C701D1
:100BB0000E9432250FB6F894DEBF0FBECDBFA196BE
:100BC000E6E00C94403036C60895FB0120812223D4
:100BD00099F0213408F027532295207FFB013181C1
:100BE000313410F0375301C03053232BFC012193D3
:100BF000CF016E5F7F4FE9CF0895A2E0B0E0E3E060
:100C0000F6E00C9422306C017B018A01FC016081CA
:100C10008CEB91E016DEF6019081913631F448E0DC
:100C2000B701C8010A96D1DF1EC09A3689F4B70110
:100C3000CE0101960E947C1E8823A9F089819A81A9
:100C400025E0959587952A95E1F7F80181870BC0F6
:100C500087FD09C0080F111D87FD1A95C7010E9465
:100C60007631F80160832296E8E00C943E30CF9311
:100C7000DF93DA01FC0170E09F01281B390B261776
:100C80003707BCF4EF01208122952F702A3010F035
:100C9000295C01C0205D2C93319628812F702A3069
:100CA00010F0295C01C0205D11962C9311971296CB
:100CB000E3CFFB01EE0FFF1FE40FF51F1082DF9162
:100CC000CF910895FC0120812F3F49F48381811148
:100CD00010C081E0FB01928191110CC008C0332744
:100CE00027FD309550E081E02417350719F080E0AA
:100CF000089581E00895A2E1B0E0E1E8F6E00C9407
:100D000025308C01F12C6F2DCE01019693D58823CF
:100D100031F1F80183819C8189131FC08130C1F0BA
:100D20008230F9F48885882399F088E0815080F03A
:100D3000282F30E0F801E20FF31FA8E0B0E0AC0F7D
:100D4000BD1FA20FB31F47819C91491779F305C0BE
:100D5000F80194818D81981721F0F394D4CF8FEF0F
:100D600001C08F2D6296E5E00C94413081508C30AB
:100D700030F4E82FF0E0E85AFE4F8081089580E0DB
:100D80000895A0E0B0E0E7ECF6E00C9423307C019D
:100D9000D5DEEC01009709F46DC0D7011296DC9006
:100DA0008D2DE4DF823009F44DC08330A1F1813014
:100DB00009F060C088819981B6E0DB120E9415209D
:100DC0008C01E2E086379E0709F454C0D7011296E1
:100DD0008C91863029F486E792E0998388830AC053
:100DE000E881F98186E792E091838083EF50FF4F9D
:100DF0008FEF8083F701628170E083E02DDE0115C3
:100E00001105C1F1D801ED91FC910280F381E02D33
:100E1000C80109952FC0288139812857324051F1E6
:100E20006D2D70E084E018DE88819981009739F09B
:100E3000DC01ED91FC910680F781E02D099588E7B2
:100E400092E016C0288139812B57324099F06D2DE0
:100E500070E085E001DE88819981009739F0DC013E
:100E6000ED91FC910480F581E02D09958BE792E0EE
:100E700099838883CDB7DEB7E7E00C943F30A2E1D9
:100E8000B0E0E5E4F7E00C94273081E089838A83C1
:100E900010E01B83CE01019674DF1F5F1031C9F78C
:100EA0006296E3E00C944330EF92FF920F931F930E
:100EB000CF93DF93EC01EA808E2D58DFF82ECE0120
:100EC0003DDE8C01009709F44AC08E81811147C034
:100ED00081E0F81639F0F81608F441C0A3E0AF1528
:100EE00070F53DC06E2D70E086E0B6DD61E0CE01AC
:100EF000C5DD7C01F80180819181892B21F46A8113
:100F000070E082E097DD8A81863061F4D701ED914F
:100F1000FC910680F781E02DC7010995F801F18267
:100F2000E0821DC0D8018D919C91FC01F182E0828C
:100F3000EF50FF4F2FEF20830E94181F10C06E2D1F
:100F400070E089E089DD6F2DCE0198DDD8018D93A9
:100F50009C93892B21F46A8170E082E06BDDCDB730
:100F6000DEB7E6E00C944030FF920F931F93CF93CF
:100F7000DF93EC012881622F70E06530710514F079
:100F800084E060C09981692F70E06730710514F0CA
:100F900085E058C08A81682F70E0603171050CF0DF
:100FA00050C0882321F0893008F04FC006C091114D
:100FB00002C02223E9F080E003C0211119C081E0C2
:100FC0001F922F931F929F931F928F9381E491E022
:100FD0009F938F9387E08F9385E48F9307D68DB788
:100FE0009EB70A960FB6F8949EBF0FBE8DBF2BC05A
:100FF000BDDEF82E0B81602F0BDD182F811116C07E
:101000001F920F931F92FF9222E431E03F932F93A0
:1010100088E08F9385E48F93E9D58DB79EB70896C6
:101020000FB6F8949EBF0FBE8DBF13C0023089F477
:101030008C810E94412A892B61F46C8170E089E0E7
:1010400001C086E0F7DC10E004C09111D1CF82E04E
:10105000B7CF812FCDB7DEB7E5E00C944130A1E1E9
:10106000B0E0E5E3F8E00C942030A82E8B016A0193
:101070007901FB0182817ADEB82E8091750281119F
:1010800004C06CE2C7010E943425109275026BE720
:10109000C7010E94342521E04A2D69E6C70164DDBD
:1010A00020E04B2D64E7C7015FDD20E0F8014081BF
:1010B00063E6C70159DD20E0F801418162E6C7011E
:1010C00053DD20E0F801428166E6C7014DDD20E0F6
:1010D000F801438168E6C70147DD20E0F801468159
:1010E00064E6C70141DD20E0F801448160E7C70103
:1010F0003BDDC114D10469F0F6018081882349F0F9
:1011000065E471E0C7010E943225B601C7010E9463
:101110003225F8018381813029F420E0458168E798
:10112000C70122DDF80183818230B1F46BE471E004
:10113000C7010E943225AE014F5F5F4F68E0C801D2
:10114000079695DDBE016F5F7F4FC7010E94322574
:1011500062E2C7010E943425F80183818230D1F414
:101160004785F0E24F02A0011124662757FD6095E4
:10117000762F08E023E0CE0101960E94E61C62E58E
:1011800071E0C7010E943225BE016F5F7F4FC7012A
:101190000E9432256DE7C7010E9434256196EAE07E
:1011A0000C943C30A4E2B0E0E8EDF8E00C9424307C
:1011B0007C0162E183E692E07DD363E672E08DEF2D
:1011C00095E00E94E41260916302613108F079C0F9
:1011D000CE0101962FD342E150E0BE016F5F7F4FF9
:1011E000CE0143960E94B5318091640287FF8B8BBC
:1011F0008091650287FF8C8B8091660287FF8D8BC3
:101200008091670287FF8E8B8091680287FF8F8BAA
:1012100080916C028F3F09F08AA38091690287FF59
:10122000888F80916D028F3F41F048E050E06DE67D
:1012300072E0CE014A960E94B53180916B0287FF21
:10124000898F8D89811104C062E1CE0143963AD322
:1012500040916302BE016F5F7F4FCE01439684DEF3
:10126000882391F0CE0101968CDDCE01439689DD75
:10127000CE01439619DE60916302CE014396FAD205
:101280008E010D5E1F4F10C041E551E05F934F93FB
:1012900083E08F9385E48F93A9D40F900F900F90E4
:1012A0000F908E010F5F1F4F85E533D681E080934D
:1012B0007502970140E050E0B80180916302CFDEF3
:1012C00017D6A496E6E00C944030FB0123853485C4
:1012D000AB014F5F5F4FBC018081C1CE0895ADE18E
:1012E000B0E0E5E7F9E00C941E307C014B015A01B7
:1012F0006901FB018481882339F038DDF7016381BE
:1013000087DB882309F462C0C701F5DC182FF601DA
:1013100080831182682F772767FD70958AE09CDBB8
:1013200017FD07C0F4018381811150C0612FC701EF
:101330004ADCF4018281882309F444C0F7018381E7
:10134000823009F03FC04601FFEF8F1A9F0A8DE0FF
:10135000F7013496DE01519601900D928A95E1F7DE
:1013600089890E94412A24E532E03A8329839C83BB
:101370008B831E821D8281E0888B48E050E0BE0195
:101380006C5E7F4FCE0107960E94B5311F86CE015D
:1013900001960E94AD2E882329F0CE0101960E946D
:1013A000612F02C080E090E8AC01662757FD609590
:1013B000762F09E023E0C4010E94C11CCE010196F2
:1013C0000E944A2EB601C701F50109956D96ECE021
:1013D0000C943A30A2E1B0E0E0EFF9E00C94203058
:1013E0008C017B016A0162E1CE0101966BD281E042
:1013F0008C838983B12CAA24A3948B2D0E94492A23
:1014000087FD10C0F80191819F3F11F0981308C02B
:101410008D83AE829601A701B801CE0101965FDFF0
:10142000B394EBCFB12C8B2D0E94532A87FD0FC0B4
:10143000F80191819F3F11F0981307C08D839601A9
:10144000A701B801CE0101964ADFB394ECCF6296B2
:10145000EAE00C943C30A4E1B0E0E1E3FAE00C9463
:101460001D307C016B015A01912C8824839442E049
:10147000742E892D0E94592A182F87FD3CC062E1E5
:10148000CE0101961FD2F70181818F3F11F08113A8
:1014900030C01D838982812F0E94412A8C010097D0
:1014A00041F10E946C22BE01685F7F4FC8010E941B
:1014B0007D228823F1F08885883211F47C8201C076
:1014C0001C828C81823071F4B801CE0143960E9457
:1014D000182DBE01685F7F4FCE0143960E94C02D3C
:1014E0008111E1CF9501A601B701CE010196F7DE8A
:1014F000DACF9394BECF6496EDE00C943930EF923E
:10150000FF920F931F93CF93DF93EC018B017A012E
:1015100088818F3F41F0823031F088818F3F41F0E8
:10152000813051F405C0A701B801CE0194DFF5CF99
:10153000A701B801CE014EDFCDB7DEB7E6E00C94CF
:101540004030A2E1B0E0E7EAFAE00C9426308C01EA
:10155000198A188A8FEF8F878E871A8ABE01625F79
:101560007F4F81EC94E00E94E4121D870C8781E09C
:1015700080937502AE014F5F5F4F65E679E0CE0163
:101580000E96BDDF6296E4E00C944230AF92BF92BB
:10159000DF92EF92FF920F931F93CF93DF931F92EF
:1015A000CDB7DEB77C018B015A01DB011296DC90CE
:1015B0008D2DDCDB282F882309F470C0C801298316
:1015C000BDDA8C012981009709F468C0F701828196
:1015D00087FD1CC02330D1F461E070E0811102C0AE
:1015E00060E070E08BE038DAD8018D919C91DC01ED
:1015F000ED91FC9161E0D70112962C91211101C06F
:1016000060E00190F081E02D099548C0F7018181EB
:10161000813009F043C0223051F4D8018D919C9162
:10162000DC01ED91FC910190F081E02D26C021308C
:10163000C9F4F80180819181F6E0DF120E94152043
:10164000DC01ED91FC910084F185E02D0995AC0160
:10165000662757FD6095762F09E023E0C5010E94BB
:10166000C11C1CC02330D1F4F80180819181DC01C0
:10167000ED91FC910280F381E02D09951F928F93EB
:1016800083E890E09F938F93BF92AF920E94F031D6
:101690000F900F900F900F900F900F900F90DF9181
:1016A000CF911F910F91FF90EF90DF90BF90AF907F
:1016B000089586EB91E090937C0280937B021092D8
:1016C0007D028EE291E090937902809378021092ED
:1016D0007A0288E891E090937702809376020895E9
:1016E00084C90895A0E2B0E0E8E7FBE00C9425305F
:1016F0008C0164E0CE014D96DDD018A2BE01635E80
:101700007F4F8BED94E060D78D8D8E3F61F48F8D90
:1017100087FD31C061E0811101C060E082E693E0A5
:101720000E94292028C081E080937502F12C6F2D42
:10173000CE0101967FD08823F1F04F2DBE016F5F5F
:101740007F4FCE014D96BEDA882399F01B8AAE01F9
:101750004D5E5F4FBE016F5F7F4FCE014D9616DF2E
:101760009801AE014D5E5F4FBE016F5F7F4F8F2DC1
:1017700076DCF394DCCFA096E5E00C94413080E079
:1017800090E00E940B3491E0843009F090E0892FC2
:101790000895CF93DF93C0E0D0E06FEFCE010E94B9
:1017A00022342196C11584E0D807B9F7DF91CF9193
:1017B00008950F931F93CF93DF93C0E0D0E060E0D4
:1017C000CE010E9422342196C11584E0D807B9F7D2
:1017D00056DB0E94C3170E94EC1706E010E0C80118
:1017E0000E947117E801A89606591F4FCE010E946A
:1017F00079172B96C017D107C9F7CE3A81E0D807E1
:1018000011F08E01ECCF64E080E090E00E94223481
:101810000E943D15DF91CF911F910F9108958EE2A7
:1018200090E00C947917089586E090E00E9471177B
:10183000F6CF0895A1E0B0E0E0E2FCE00C942630A1
:101840008C0169839CDF6981882311F0603110F07D
:1018500080E00CC082E1689FB001112462557E4F88
:1018600042E150E0C8010E94FB3381E02196E4E0B0
:101870000C944230A1E0B0E0E0E4FCE00C942630AF
:101880008C0169837CDF6981882311F0603110F05D
:1018900080E00CC082E1689FB001112462557E4F48
:1018A00042E150E0C8010E94133481E02196E4E057
:1018B0000C9442302FEF615020F0FC012193CF01B6
:1018C000FACF0895615020F0FC011192CF01FACFB8
:1018D0000895A2E1B0E0EFE6FCE00C9426304FDF83
:1018E000082F882331F1CBDA86E090E00E94BA1706
:1018F0008EE290E00E94061810E0612FCE01019662
:1019000099DF8823B1F0412FBE016F5F7F4FCB017C
:101910002BDB882321F0CE010196C6DA08C062E1F4
:10192000CE010196CFDF612FCE010196A3DF1F5FAD
:10193000E4CF802F6296E4E00C944230CF93DF93A3
:10194000FC01EC01C45BDF4FDC01A35BBF4F98E0FF
:10195000908F82E0818F92AB83AB98838C93DF91E1
:10196000CF910895FC01862F880F8C5F808F618F47
:1019700082AB63ABDF01A45BBF4F8C93E35BFF4F94
:10198000608308950F931F93CF93DF938C01C0E082
:10199000D0E0C8018C0F9D1F33D0AB01BC016A960B
:1019A000CE34D105B1F7CB01BA01DF91CF911F91B0
:1019B0000F910895AB01662757FD6095762FBA0108
:1019C00055274427DFCF0895805C9F4FFC0160813D
:1019D00071818281938108950F931F93CF93DF9339
:1019E000EC018B01A1D0B801CE014A969DD0B8017F
:1019F000CE01C49699D0DF91CF911F910F91089598
:101A0000A4E0B0E0E6E0FDE00C941830FC0149836E
:101A10005A836B837C8384809580A680B780808680
:101A20009186A286B3864080518062807380448212
:101A300055826682778240835183628373830089F3
:101A4000118922893389048B158B268B378BC484AB
:101A5000D584E684F784C08AD18AE28AF38A418DEC
:101A6000A08D2A2E312CC701B601601B710B820B91
:101A7000930B6C0D7D1D8E1D9F1D042E04C0F594CF
:101A8000E794D794C7940A94D2F76C197D098E090C
:101A90009F096801790104C0F594E794D794C7942D
:101AA0004A95D2F76C0D7D1D8E1D9F1DC980DA8071
:101AB000EB80FC800A2E04C0F594E794D794C79479
:101AC0000A94D2F76C0D7D1D8E1D9F1DA101415002
:101AD000510904C075946794579447944A95D2F776
:101AE000640D751D861D971D04C0B594A794979429
:101AF0008794AA95D2F7680D791D8A1D9B1DD10187
:101B0000129704C03595279517950795AA95D2F792
:101B1000601B710B820B930B648775878687978791
:101B20002496E2E10C943430FC01AB01662757FDAA
:101B30006095762FBA0155274427408351836283ED
:101B40007383448355836683778340875187628795
:101B500073874487558766877787408B518B628B65
:101B6000738B448B558B668B778B08950F931F93E4
:101B7000FC01408951896289738904851585268510
:101B8000378504171507260737075CF4848995897C
:101B9000A689B789481759076A077B0714F0CB0154
:101BA00002C080E090E81F910F9108950F931F935A
:101BB000FC014089518962897389048515852685D0
:101BC000378540175107620773075CF4848995894C
:101BD000A689B78984179507A607B70714F0CB0124
:101BE00002C080E090E81F910F910895A9E0B0E055
:101BF000ECEFFDE00C941D30CB8CDC8C84E489D1BF
:101C0000698D83EA90E0E5D26A8D8DE990E093D406
:101C100081E990E09F938F9351D18E01035E1F4F16
:101C20000F900F90712C88E9E82E80E0F82E96E84E
:101C3000A92E90E0B92EF601E70DF11D80818823D1
:101C400009F456C0863679F178F4843609F042C03A
:101C5000480182E0880E911CF80181818F93808178
:101C60008F93BF92AF9230C08337A1F0843791F544
:101C70004801F2E08F0E911CF801408151816627E6
:101C800057FD6095762F0CE021E0CE0101960E9471
:101C9000C11C16C04801F2E08F0E911CF801818131
:101CA0008F9380810EC04801F2E08F0E911CF801E5
:101CB000608171812CE043E0CE0101960E94421CBC
:101CC0009F938F93FF92EF92F9D00F900F900F9008
:101CD0000F9084017394F601E70DF11D8081882334
:101CE00009F4A9CF6CE282EE93E00E943425A3CFE1
:101CF0006DE582EE93E00E94342527D12996EDE030
:101D00000C943930FC01808180933B030E941C219C
:101D10008BCD08959C01CB01B9010E94541E811105
:101D200083CD08950F931F93CF93DF93EB01162F6D
:101D300013700E947631FE01FF27EE0FFF1FE5535F
:101D4000FE4F0190F081E02D6083C33028F0209198
:101D500070033091710304C020916E0330916F03C2
:101D6000113059F030F0123059F4C9010E9410209E
:101D700007C0C9010E94072003C0C9010E940B20AF
:101D800053DDDF91CF911F910F9108959C01CB01FD
:101D9000B9010E94991E811147CD08959C01CB0184
:101DA000B9010E947C1E81113FCD08959C01CB0199
:101DB000B9010E94EB1E811137CD0895A1E0B0E07A
:101DC000E4EEFEE00C9426308B01BC01CE010196BE
:101DD0000E94B41E882321F08981F801808324DDCC
:101DE0002196E4E00C944230A6E0B0E0EAEFFEE099
:101DF0000C9422307C016B01DF926F93FF928F93E2
:101E000088EC91E09F938F938CE08F9389E48F937C
:101E1000EDDE0AE113E00FB6F894DEBF0FBECDBFD2
:101E200046E050E0B801CE0101960E949C316981E4
:101E30007A81C7010E94A531892B39F46B817C819D
:101E4000ED81FE81C601099512C00A5F1F4F93E024
:101E5000083C190729F781E591E09F938F931F9222
:101E600087E58F93C3DE0F900F900F900F9026960B
:101E7000E8E00C943E3021E531E03F932F938F93BF
:101E800089E48F93B3DE0F900F900F900F90089519
:101E90008091140190911501DC01ED91FC91008479
:101EA000F185E02D0995089526E040E051EE60E0CF
:101EB00070E082EE93E00C9477240895A0E0B0E007
:101EC000E4E6FFE00C942830FE01359641915191F3
:101ED0009F0160E870E080E892E00E940F3260E8C5
:101EE00072E082EE93E00E943225E2E00C944430EE
:101EF00082EE93E00C943C2508958F708A3010F0A8
:101F000067E301C060E3680F82EE93E00C94342530
:101F10000895682F82EE93E00E9434256AE382EEF2
:101F200093E00E94342581E0809300030895F1DF5F
:101F30006BE582EE93E00C94342508956DE582EE16
:101F400093E00E943425D4CF08956DE782EE93E0AC
:101F50000E943425CDCF0895A6E0B0E0E2EBFFE08B
:101F60000C942530F42E6D837E83D3DF6D817E81CA
:101F7000FF20C9F08B010C5F1F4F44E050E0CE0101
:101F800001960E949C31EC81F0E0EE0FFF1FE952B8
:101F9000FE4F0190F081E02D6B8189819A81099536
:101FA000FA94B801E5CFD1DF2696E5E00C944130F4
:101FB0008BE393E090937F0280937E0248E164EF8D
:101FC00073E083E4C9CF08958AE193E090937F02A0
:101FD00080937E024BE068EC73E086E5BDCF089508
:101FE000CF93DF93EC0180910003882311F06BE71E
:101FF00001C06CE282EE93E00E943425109200034F
:1020000062E282EE93E00E943425DF93CF9356DFA5
:1020100062E282EE93E00E9434256AE382EE93E06E
:102020000E9434250F900F90DF91CF910895CF93A8
:10203000DF93EB01D5DF209719F083EB90E002C02E
:102040008EEA90E0DF93CF939F938F9337DF0F90CB
:102050000F900F900F90DF91CF910895EF92FF9224
:102060000F93CF93DF93CDB7DEB729970FB6F894D0
:10207000DEBF0FBECDBF7C01AB01662757FD60956B
:10208000762F09E022E0CE0101960E94C11CC70113
:10209000A7DFBE016F5F7F4F82EE93E00E94322583
:1020A00029960FB6F894DEBF0FBECDBFDF91CF915A
:1020B0000F91FF90EF900895A2E0B0E0E2E6F0E12A
:1020C0000C94283069837A838BDF69817A8182EE70
:1020D00093E00E9432252296E2E00C944430EF9285
:1020E000FF920F93CF93DF93CDB7DEB72C970FB648
:1020F000F894DEBF0FBECDBF7C01E0917E02F0916F
:102100007F02E60FF11D40815181662757FD6095E2
:10211000762F0CE021E0CE0101960E94C11CBC018B
:10212000C701CADF2C960FB6F894DEBF0FBECDBF35
:10213000DF91CF910F91FF90EF900895ACE0B0E068
:10214000E4EAF0E10C9426308C01E0917E02F091FB
:102150007F02E60FF11D608171812CE043E0CE012A
:1021600001960E94421CBC01C801A6DF2C96E4E047
:102170000C944230EF92FF920F93CF93DF93CDB741
:10218000DEB72C970FB6F894DEBF0FBECDBF7C0133
:10219000E0917E02F0917F02E60FF11D40815181B6
:1021A000662757FD6095762F0CE023E0CE0101965F
:1021B0000E94E61CBC01C7017FDF2C960FB6F89485
:1021C000DEBF0FBECDBFDF91CF910F91FF90EF909B
:1021D0000895CF93C62F04DF62E282EE93E00E945F
:1021E00034256C2F82EE93E00E94342562E282EE69
:1021F00093E00E943425CF9108950F93CF93DF93FE
:10220000CDB7DEB72C970FB6F894DEBF0FBECDBFAB
:1022100083E57FDE6091320385E193E0DADF409170
:10222000330350913403662757FD6095762F0CE0F9
:1022300022E0CE0101960E94C11CBC018DE093E01A
:102240003BDF4091350350913603662757FD60957B
:10225000762F22E0CE0101960E94C11CBC0183E0D2
:1022600093E02ADF60913703709138032CE043E05C
:10227000CE0101960E94421CBC018BEF92E01CDF54
:102280006091390370913A032CE043E0CE0101964E
:102290000E94421CBC0183EF92E00EDF56DE2C96BA
:1022A0000FB6F894DEBF0FBECDBFDF91CF910F9177
:1022B0000895E0917E02F0917F02E60FF11D6081AA
:1022C00088CF0895CF93DF93EB018ADEDF93CF931E
:1022D0008BEA90E09F938F93F1DD0F900F900F901A
:1022E0000F90DF91CF910895E0917E02F0917F02EF
:1022F000E60FF11D60817181E5CF08950F931F9363
:10230000CF93DF938C01EB0184E503DE93D6BC0110
:1023100086EF90E0A3DEA0D6BC018EEE90E09EDEBC
:10232000B80186EE90E083DE9CD6BC018BED90E098
:1023300095DEA9D6BC0181ED90E090DEBE0187EC70
:1023400090E075DEA5DD8091140190911501DC010E
:10235000ED91FC910480F581E02D099581110CC06F
:102360006091190370E088EB90E0ACDFEEDDDF9167
:10237000CF911F910F9108958BDDBC018EEB90E002
:102380006DDEEECF60E070E080E090E0B7CF0895C2
:10239000A0E8B0E0EEECF1E10C942830FE01EB5740
:1023A000FF4F419151919F0160E870E0CE0101968D
:1023B0000E940F3260E070E0CE0101969FDFC058AE
:1023C000DF4FE2E00C944430A2E0B0E0EAEEF1E14D
:1023D0000C9426308C01BC01CE0101960E94541E43
:1023E000882389F180913203803799F429813A81D9
:1023F0008091330390913403281B390B37FF03C0BE
:1024000031952195310925363105D4F027E731E0A2
:1024100002C02EE831E02115310591F03F932F9352
:102420001F930F9388E691E09F938F938CE491E044
:102430009F938F93ADDF0FB6F894DEBF0FBECDBF75
:1024400089819A81EBD72296E4E00C944230A0E88F
:10245000B0E0EDE2F2E10C942830FE01EB57FF4FC3
:10246000419151919F0160E870E0CE0101960E9478
:102470000F32BE016F5F7F4F80E090E03FDFC058BA
:10248000DF4FE2E00C944430CF93DF93EC0160E047
:10249000888183D58EE891E09F938F93DF93CF93CC
:1024A00082E791E09F938F938CE491E09F938F93C9
:1024B000CEDF8DB79EB708960FB6F8949EBF0FBEBD
:1024C0008DBFDF91CF910895A2E0B0E0EAE6F2E19E
:1024D0000C9426308C01BC01CE0101960E94541E42
:1024E0008823D9F0809132038636A1F48EE891E0FA
:1024F0009F938F931F930F938CE591E09F938F93FE
:102500008CE491E09F938F93A2DF0FB6F894DEBF27
:102510000FBECDBF89819A81B0D72296E4E00C949A
:102520004230E0917E02F0917F02E60FF11D608162
:1025300070E0C8CE089570E0C5CE0895CF93DF93C4
:10254000C0E1D7E282EE93E00E942223892B51F46E
:1025500084E690E00E94CE252197209799F78FEF8F
:102560009FEF04C082EE93E00E943B23DF91CF9166
:1025700008951F93CF93DF93EC01188210E0DEDF04
:102580009C011D31B9F08D379105A1F02F3F8FEFE0
:10259000380781F02C32310579F02A33310561F0AA
:1025A000C9018D7F809759F3FE01E10FF11D208352
:1025B0001F5FE5CF80E001C081E0C10FD11D18820F
:1025C000DF91CF911F910895ACE3B0E0EAEEF2E124
:1025D0000C9423308C017B011F8E1982AFDF8B3767
:1025E0009105C1F09F938F9383E491E09F938F9324
:1025F0008AE08F9385E48F93F9DA0F900F900F9014
:102600000F900F900F901CC0D12C898181110CC0AC
:10261000DD20B1F0CE014F96ACDF8823A9F3CE01C7
:102620000196A7DFD82EF1CF8F8D882389F3A701DC
:10263000BE016F5F7F4FCE014F96F8010995E8CF3D
:10264000EC96E7E00C943F3060E070E084EF9EE0B1
:10265000BBDFD3DDADCC0895A6E1B0E0E2E3F3E16A
:102660000C94183023E4222E21E0322ECE01019664
:102670007C013FEF432E30E0532E41E4C42E41E075
:10268000D42E5AE3A52E51E0B52E64E0862E61E0EB
:10269000962E82EE93E00E942223181619060CF063
:1026A0001CC182EE93E00E943B2399278A35910555
:1026B00009F4FCC0ACF58334910509F488C09CF49E
:1026C0008D30910531F324F48A30910511F3F5C072
:1026D00080329105F1F28134910509F0EEC091E06C
:1026E00090936002D6CF8235910509F4E3C05CF483
:1026F0008534910509F4CCC08634910509F0DDC01C
:102700000E948E27C6CF8335910509F466C08535B2
:10271000910509F0D2C082EE93E00E94D208B9CFB1
:102720008A36910509F485C0F4F48436910509F4DC
:10273000B5C054F48136910509F444C0833691053F
:1027400009F0BBC035DCA5CF8536910509F473C00F
:102750008836910509F0B1C088E6E9DB82EE93E0A6
:102760000E94A10AA1C08337910509F43BC00CF572
:102770008C36910509F438C08E36910509F09DC05C
:102780001F9281E08F931F9293E79F931F921F9256
:102790001F9282E08F93DF92CF92BF92AF929F926F
:1027A0008F928CDBA5DB0FB6F894DEBF0FBECDBFDA
:1027B00070CF8437910549F08637910509F07DC0C7
:1027C00003DC67CF1092600264CFDCDD62CFDBD325
:1027D0000E941C21EDDB8DE003C0FED30EDD8EE0F8
:1027E0004ADB57CF0ADD55CF8CE493DB6BE582EEF5
:1027F00093E00E94342510E0A701612F82E793E067
:102800000E949D2CFF92EF925F924F9257DB0F90A8
:102810000F900F900F90133011F06CE201C06DE536
:1028200082EE93E00E9434251F5F143029F760DBAD
:1028300030CF0ADF2ECF85E47ADB00E010E062E2E1
:1028400082EE93E00E943425380190E4690E711CF9
:10285000C8010E940B34982F82958F709E8B4DDBA0
:102860009E89892F4ADB0F5F1F4F0615170581F7D9
:1028700062E282EE93E00E943425011584E018079D
:1028800099F036DB6CE282EE93E00E943425D7CFDC
:102890000E94D90B8FE0EFDA84D0FBCE84E647DBD1
:1028A00082EE93E00E94720B49DBF3CE0E94C90BCB
:1028B00080E196CF0E948B27ECCE9F938F933F921F
:1028C0002F9291E09F9387E58F9390D90F900F906F
:1028D0000F900F900F900F90DCCE6696E2E10C9473
:1028E0003430660F682B90915F03E62FF0E0809103
:1028F00003038F70992341F094E0899FE00DF11D4F
:102900001124E059FB4F07C094E0899FE00DF11DB1
:102910001124EC5AFB4FE491E093030380910303ED
:10292000807321F12091050330910603803119F461
:102930002F5F3F4F02C021503109809109039091D0
:102940000A0340910703509108038217930714F478
:10295000CA0104C0241735070CF0C901909306037F
:102960008093050382E793E00C94902C089581E016
:102970008093040382E793E00C94902C08950E94C6
:10298000E12A20910103309102038217930731F06D
:10299000909302038093010381E0089580910403E2
:1029A00008950E94690C811111C016D3ECD20E94C7
:1029B0003F0781E591E09F938F9383E08F9387E5B5
:1029C0008F9314D90F900F900F900F900895009748
:1029D00041F0DC01ED91FC910480F581E02D099539
:1029E000089580E008956817790768F4861B970BAF
:1029F00020910C0330910D032817390720F4909390
:102A00000D0380930C03089510921803109217037E
:102A10000895CF93DF93EC010E94661F888199810E
:102A2000D6DF811103C0CE010E94181FDF91CF9124
:102A300008958091700390917103EBDF80916E0394
:102A400090916F03E6DF8091140190911501DC01F4
:102A5000ED91FC910084F185E02D09958115904858
:102A600059F48091140190911501DC01ED91FC91D4
:102A70000680F781E02D09950895CF93DF9310929A
:102A800019038FE68093320360E082E693E00E94B0
:102A900029208091700390917103892B21F582EF99
:102AA00090E00E944E25EC0102960E949E0CCE0101
:102AB000805B9F4F0E949E0CCE0182569F4F0E94CA
:102AC0009E0CFE01E451FF4F2FEF208386E792E03A
:102AD0009983888335962083D0937103C0937003C4
:102AE000CE010E94181F80916E0390916F03892B75
:102AF00021F582EF90E00E944E25EC0102960E94A3
:102B00009E0CCE01805B9F4F0E949E0CCE01825690
:102B10009F4F0E949E0CFE01E451FF4F2FEF208338
:102B200086E792E09983888335962083D0936F035C
:102B3000C0936E03CE010E94181F7BDF65DF1092E9
:102B400011031092100310920F0310920E03DF91E5
:102B5000CF910895A0E0B0E0E0EBF5E10C942230D5
:102B600080913203823661F0803751F0863609F069
:102B70004BC181E090E8909334038093330344C1C8
:102B80002091330330913403C9019058029718F40F
:102B900081E090E835C18091700390917103FC0150
:102BA000EC57FF4F4485558566857785261B370B87
:102BB00030931B0320931A030E94F81F9093210364
:102BC0008093200380916E0390916F030E94F21F07
:102BD000DC0180910B0320911A0330911B038C338D
:102BE00021F08F5F80930B0389C010920B03C90102
:102BF000E091190340911C0350911D0360911E0345
:102C000070911F03E11168C0F90137FF04C0EE277E
:102C1000FF27E21BF30BC0914603D0914703EC174B
:102C2000FD070CF047C0DD24D394121613060CF0F8
:102C3000D12CE1E014161506160617060CF0E0E09C
:102C4000DE1234C0E0913503F0913603C0913E03AB
:102C5000D0913F03EC17FD0714F080E090E0C091A5
:102C60003C03D0913D03CE17DF0714F080E090E0E5
:102C70000091330310913403C0916003D09161033C
:102C80007F01E01AF10AEC16FD0614F080E090E0F6
:102C90000E1B1F0B0C171D0714F080E090E0D110E5
:102CA00017C0FC5FEA17FB07CCF416C0C901880FF8
:102CB000991F14C06A017B0183E0F594E794D794CF
:102CC000C7948A95D1F7882799278C199D0906C042
:102CD000F450AE17BF0714F480E090E0AA2797FDE8
:102CE000A095BA2F840F951FA61FB71F80931C03B2
:102CF00090931D03A0931E03B0931F03B90180910D
:102D0000400390914103F9D69093230380932203CB
:102D100040911C0350911D0360911E0370911F038D
:102D20008091420390914303DAD6909325038093D8
:102D300024036091200370912103809144039091BA
:102D40004503DBD69093270380932603209133031A
:102D5000309134036901EE24D7FCE094FE2C4091BD
:102D6000220350912303662757FD6095762FC40EEA
:102D7000D51EE61EF71E40912403509125036627B9
:102D800057FD6095762FC40ED51EE61EF71EAA27A6
:102D900097FDA095BA2FC80ED91EEA1EFB1E009102
:102DA0003C0310913D038091600390916103A80161
:102DB000480F591F421753071CF48901081B190BB0
:102DC000C0913E03D0913F03AE01481B590B24171D
:102DD00035071CF4E901C80FD91FC701B60133D666
:102DE0008017910754F0C701B6012DD6C817D9072F
:102DF00034F0C701B60127D603C0C80101C0CE0117
:102E00009093360380933503CDB7DEB7E8E00C949A
:102E10003E30CF93DF93EC0177FF03C0719561954E
:102E20007109F5E075956795FA95E1F7882777FDC3
:102E30008095982F2AE930E040E050E035D668814F
:102E400079818A599D4F59D68931910514F489E1C8
:102E500090E0998388830E940F0CDF91CF910895B1
:102E6000CF93DF93EC0177FF03C0719561957109F2
:102E7000A5E075956795AA95E1F7882777FD809578
:102E8000982F25E530E040E050E00ED6688179814A
:102E90002AEA31E0A901481B590BCA012ED69983B1
:102EA00088830E940F0CDF91CF91089560910E03EB
:102EB00070910F0382E692E00C94772F0895609151
:102EC00010037091110382E692E00C94772F08951D
:102ED000609112037091130382E692E00C94772FB5
:102EE000089547E250E0BC018BE393E00C94133467
:102EF000089549E050E0BC0182E393E00E9413345E
:102F000080913303909134039093150380931403BD
:102F100008956091580380916E0390916F030E9411
:102F200007206091590380916E0390916F030E9476
:102F30000B2060915A0380916E0390916F030E9461
:102F4000102060915B0380917003909171030E9447
:102F5000072060915C0380917003909171030E943F
:102F60000B2060915D0380917003909171030C942C
:102F70001020089547E250E0BC018BE393E00E94EB
:102F8000FB33C7CF089547E250E069EA74E08BE372
:102F900093E00E949C31BDCF089590913203891334
:102FA00005C0909119039550933018F410921903AD
:102FB00002C0662381F0809332038F3651F481E0A2
:102FC00090E8909334038093330390933603809377
:102FD00035030C940F0C089560E08FE6DEDF81E08E
:102FE00090E8909334038093330390933603809357
:102FF000350386E690E0909338038093370380E0B2
:103000009AE090933A0380933903089549E050E0A1
:10301000BC0182E393E00E94FB33809133039091E3
:103020003403909315038093140361E0809132037D
:10303000B4CF0895E0917003F09171038081918184
:10304000C6DC882331F08091700390917103CAC768
:10305000089580E090E808958091330390913403BF
:103060000895E0916E03F0916F0380819181AFDC50
:10307000882331F080916E0390916F03B3C7089558
:1030800080E090E80895809135039091360308958B
:103090009091190381E0943021F0983011F080E094
:1030A00008950895A4E0B0E0E8E5F8E10C94263036
:1030B0004817590708F4CA019C01DB010E9402303D
:1030C00020E13EE040E050E00E94CB2F89012983BF
:1030D0003A834B835C83DCDF29813A81882321F0AA
:1030E00000271127021B130B80916E0390916F0331
:1030F00079D7800F911F90932903809328032496FA
:10310000E4E00C944230A0E0B0E0E9E8F8E10C948F
:103110001F3080910A0190910B01DC01ED91FC912F
:103120000190F081E02D0995909116038917A1F087
:1031300080931603882319F082EA94E002C08BE999
:1031400094E09F938F938CE894E09F938F937FD923
:103150000F900F900F900F90809132038F3631F4C3
:1031600081E0809319039924939401C0912C80915C
:103170003503909136039058029708F445C1E091C9
:103180006E03F0916F038081918121DC882309F423
:103190003BC1E0917003F09171038081918117DC54
:1031A000811108C080913203823609F42DC1803725
:1031B00009F42AC18DDEEC0179DE7C0180DE6C0130
:1031C00080916E0390916F030DD75C018091700325
:1031D0009091710307D78C0182E692E00E94872FBD
:1031E0004091190350E04A30510508F012C1FA012C
:1031F000EC5CFF4F0C94E72F909313038093120322
:10320000911007C110920D0310920C032091350309
:10321000309136038091480390914903820F931FA8
:103220008A159B055CF5B60188E592E0DCDB8091B0
:103230003203863621F4B70188E592E00CC0809114
:103240003303909134030F96801791070CF0D5C08B
:10325000B7018CE291E0C7DB8091100190911101E0
:103260008857924009F447C080910C0390910D0358
:10327000892B11F085E03AC084E038C080914A0380
:1032800090914B03820F931FA816B9060CF0B5C09E
:10329000B70188E592E0A7DBB6018CE291E0A3DB01
:1032A00080913203863649F0809133039091340344
:1032B0000F97081719070CF0A0C080911201909188
:1032C00013018857924059F480915E03882399F046
:1032D00080910E0190910F018857924061F080918A
:1032E0000C0390910D03892B21F086E08093190344
:1032F00002C083E0FBCF809119038350823008F035
:1033000088C080911703882321F0B70188E097E0F7
:1033100008C080911803882309F47BC0B60184E8B3
:1033200093E061DB87E06DC021E020931703909369
:103330000F0380930E036091390370913A03AE013D
:103340008091560390915703ADDE84E0809319037A
:103350002091280330912903809135039091360301
:103360008217930774F480913203863609F451C0B2
:1033700080913303909134034097081719070CF09C
:1033800048C0C53BD10528F030932B0320932A0376
:1033900034C088E036C021E02093180390931103D5
:1033A000809310036091370370913803AE018091D0
:1033B00054039091550376DE83E0809319032091A6
:1033C0002803309129038091350390913603281703
:1033D000390764F4809132038636D9F08091330343
:1033E000909134034096801791079CF4C53BD1051A
:1033F00038F030932D0320932C031092190309C049
:1034000089E08093190305C01092190399249394BD
:10341000D1CECDB7DEB7EBE00C943B30CF93DF934A
:10342000EC01209133033091340390933403809363
:103430003303281B390B37FF03C031952195310920
:10344000213031400CF0E0DA85DB5DDE8091320323
:10345000803771F420911403309115032C1B3D0B20
:1034600037FF03C03195219531092138310514F01A
:103470000E940F0CDF91CF910895909336038093B3
:103480003503C2DA67DB3FDE0C940F0C0895909190
:10349000190381E0933021F0993011F080E0089514
:1034A0000895CF93DF9380913203843709F449C0A4
:1034B00082E693E0E9D5EBDFC82FEADDD82F8091D3
:1034C000100190911101DC01ED91FC910190F081CE
:1034D000E02D6D2F09958091120190911301DC016F
:1034E000ED91FC910190F081E02D6C2F0995A09158
:1034F0000E01B0910F01ED91FC9111970190F081B7
:10350000E02D80911603811109C080915E0388230C
:1035100011F0C11103C060916D0301C061E0CD01E4
:10352000099580910C0190910D01DC01ED91FC91C8
:103530000190F081E02DCC2311F061E001C06D2FEE
:103540000995DF91CF910895A0E0B0E0EAEAFAE1B1
:103550000C94223080911803882319F098DF882377
:1035600049F080911703882309F4D8C091DD8111B7
:10357000D5C05EC080916E0390916F033ED5EC0183
:1035800000912C0310912D037C01E01AF10AC090E8
:103590003703D0903803C11580E8D807B9F080917F
:1035A0004C0390914D038E159F0524F4B70187E3DA
:1035B00093E02FDC80914E0390914F03E816F906BB
:1035C0005CF5B70187E393E04BDC26C078DC8538F7
:1035D000934008F4A3C080916E0390916F0302D5CD
:1035E00020912C0330912D0340914E0350914F03B5
:1035F000240F351F8217930764F480916E03909116
:103600006F03F0D4EC01B70187E393E029DC23E1F9
:1036100004C01092180382C021E180913703909179
:103620003803D0933103C0933003109218035DC068
:1036300080916E0390916F03E5D4EC0100912A0311
:1036400010912B037C01E01AF10AC0903903D0904D
:103650003A03C11590E8D907B9F0809152039091CF
:103660005303E816F90624F4B70189E393E0D1DBAC
:1036700080915003909151038E159F055CF5B70121
:1036800089E393E0EDDB26C011DC8930974008F434
:1036900045C080916E0390916F03A4D420912A03BA
:1036A00030912B034091500350915103240F351F4B
:1036B0002817390764F480916E0390916F0392D4B8
:1036C000EC01B70189E393E0CBDB24E104C0109265
:1036D000170324C022E18091390390913A03D093DB
:1036E0002F03C0932E03109217039F938F93DF92A3
:1036F000CF921F930F93DF93CF9383EE91E09F932D
:103700008F932F9389E48F930E94F60D8DB79EB708
:103710000C960FB6F8949EBF0FBE8DBFCDB7DEB727
:10372000E8E00C943E30EBE6F3E08EE291E091832A
:10373000808310926D038CEE91E0909363038093ED
:10374000620388E592E09093670380936603F093A9
:103750006903E0936803089582E291E09093630324
:103760008093620390936C0380936B030895A0E0B1
:10377000B0E0EDEBFBE10C9428309E01255F3F4F5C
:1037800049855A856F8178858D819E810E940F328F
:10379000E2E00C9444308F929F92AF92BF92DF92FE
:1037A000EF92FF920F931F93CF93DF93EC01D02EF4
:1037B00077FD03C080E2888309C08DE2888370951D
:1037C0006095509541955F4F6F4F7F4F4A015B0168
:1037D00039E0B594A794979487943A95D1F77401FA
:1037E000213039F0223051F008EE13E0E0EEF4E041
:1037F00009C00AE010E0E0EFF4E004C004E610E0E5
:10380000E8EEF4E09A01AB01317044275527D80166
:103810000E9408307F5F8F4F9F4F29E095958795D5
:10382000779567952A95D1F76017710730F0740185
:103830008FEFE81AF80A60E070E07F936F93FF92D1
:10384000EF92FF93EF938D2D90E001979F938F93CD
:10385000CE0101969F938F938ADF8DB79EB70A960C
:103860000FB6F8949EBF0FBE8DBFCE01DF91CF91F2
:103870001F910F91FF90EF90DF90BF90AF909F90BE
:103880008F9008950F93342FAB01662757FD6095F5
:10389000762F022F232F7FDF0F910895FB012081C8
:1038A000322F3F7D11F02E3239F421E08617970731
:1038B00009F020E0822F089581E008950F931F936F
:1038C000CF93C42F20913B03263409F5442319F0EC
:1038D00070548109910997FF02C003ED01C00DE208
:1038E000A2E3B0E09B01AC010E940830112707FD64
:1038F0001095212F312F600F711F821F931F2AE512
:1039000030E040E050E00E94CB2FCA01B901CC2347
:1039100019F0705681099109CF911F910F91089567
:103920000F931F9320913B03263419F5442321F074
:1039300062577C478F4F9F4F97FF02C007EE01C031
:1039400009E1AAE5B0E09B01AC010E940830112713
:1039500007FD1095212F312F600F711F821F931FBC
:1039600022E330E040E050E00E94CB2FCA01B901D1
:1039700005C0442319F0705A8F4F9F4F1F910F912C
:103980000895EF92FF920F93CF93DF931F92CDB7DD
:10399000DEB77C01CB01BA0150584230510538F4F2
:1039A00068EF74E0C7010E94AE31C70108C041E072
:1039B0002983B6DFAB01BC012981C701ECDE0F9082
:1039C000DF91CF910F91FF90EF900895EF92FF92CA
:1039D0000F93CF93DF931F92CDB7DEB77C01CB015E
:1039E000BA0140E029839CDFAB01BC012981C701FA
:1039F000D2DE0F90DF91CF910F91FF90EF9008955D
:103A00000F931F9341E08CDF9B01AC0197FF03C034
:103A100000E01FEF02C000E011E0AAE0B0E00E9469
:103A20000830222717FD2095322F600F711F821F4B
:103A3000931F20E032E040E050E00E94CB2FC9010C
:103A40001F910F910895623020E872072FEF8207CF
:103A5000920744F0611520E87207810591052CF466
:103A6000CB01089582E090E808958FEF9FE70895D5
:103A7000BC01882777FD8095982F49E0660F771F56
:103A8000881F991F4A95D1F76B5F7F4F8F4F9F4FCC
:103A90002AE030E040E050E00E94CB2FCA01B9019B
:103AA00041E00CDFD0CF0895A0E0B0E0EAE5FDE111
:103AB0000C9422306B017C01EA018901C4DF8C1770
:103AC0009D072CF00817190724F0C60103C0CE018A
:103AD00001C0C801CDB7DEB7E8E00C943E30DC0190
:103AE0009A01AB010E941230E9E095958795779590
:103AF0006795EA95D1F7A7CF08959C01DB010E9455
:103B0000ED2FA9E09595879577956795AA95D1F7BB
:103B10009ACF0895A0E0B0E0E0E9FDE10C942230F6
:103B20008C01FB0191838083C0E0D0E0DD24D3943D
:103B300020E030E0A901E080F180D701CC90CC20DA
:103B400039F1B0E2CB1203C02097E1F025C08DE23D
:103B5000C816B9F080ED8C0D8A30D0F4AAE0B0E040
:103B60000E9408309B01AC018C2D90E0C097AA27E1
:103B700097FDA095BA2F280F391F4A1F5B1F21966A
:103B800001C0D12CAFEFEA1AFA0AF182E082D3CF5A
:103B9000CD2B11F411830083D11008C0662777273D
:103BA000CB01621B730B840B950B02C0CA01B901D8
:103BB000CDB7DEB7E8E00C943E30A2E0B0E0E3EE33
:103BC000FDE10C9418306C018B016DE270E0C801CE
:103BD0000E94BE311C01BE016F5F7F4FC8019ADF9A
:103BE0002B013C0169817A81C80158DE882311F0DC
:103BF00080E056C06EE270E0C8010E94BE310097BE
:103C000089F18C010F5F1F4FBE016F5F7F4FC801AD
:103C100081DF4B015C01E980FA80B701C8013EDE1B
:103C20008111E6CFA501940119E0220F331F441F33
:103C3000551F1A95D1F7E01A00E010E08AE0882EAF
:103C4000912CA12CB12CE01681F0CA01B9016B5F57
:103C50007F4F8F4F9F4FA50194010E94CB2F0F5F85
:103C60001F4FF1CF20E030E0A901B9E0440C551C12
:103C7000661C771CBA95D1F7D301C2012114310417
:103C800029F4820F931FA41FB51F04C0821B930B3E
:103C9000A40BB50BF60180839183A283B38381E0EB
:103CA0002296E2E10C943430A4E0B0E0EAE5FEE1D3
:103CB0000C9424308C017B018BED94E00E94C9317F
:103CC000892B19F481E090E80DC0B701CE0101966F
:103CD00074DF882361F069817A818B819C8141E066
:103CE000EDDDB1DEF8019183808381E001C080E0E9
:103CF0002496E6E00C944030A4E0B0E0E2E8FEE177
:103D00000C9426308C01CE01019657DF882361F098
:103D100069817A818B819C8140E0D0DD94DEF8015D
:103D20009183808381E001C080E02496E4E00C94DC
:103D30004230A4E0B0E0EFE9FEE10C9426308C01C3
:103D4000CE0101963ADF882351F069817A818B8117
:103D50009C8179DEF8019183808381E001C080E05D
:103D60002496E4E00C944230A2E0B0E0EAEBFEE1FD
:103D70000C9420305C018B0186ED94E00E94C931E7
:103D8000892B21F481E0F501808321C0B80180ED09
:103D900094E00E94C931892B19F4F501108214C0F6
:103DA000BE016F5F7F4FC801B5DE6B017C01698189
:103DB0007A81C80173DD811109C0F1E0FC1530F092
:103DC0008C2D8170F501808381E001C080E0229616
:103DD000EAE00C943C30A2E0B0E0E1EFFEE10C94AC
:103DE00020308C015B01BE016F5F7F4FC50192DE09
:103DF0006B017C0169817A81C50150DD811113C09D
:103E0000C114D10481E0E806F10434F08FEF9FEF94
:103E1000F8019183808305C0F7FC05C0F801D182C9
:103E2000C08281E001C080E02296EAE00C943C3040
:103E3000A0E0B0E0EEE1FFE10C942230EC018881DB
:103E400099810097F1F1DC01ED91FC910680F781F9
:103E5000E02D09958823A9F17E01B1EFEB0EF11C4D
:103E6000F70180818D3368F188819981DC01ED91C2
:103E7000FC910084F185E02D09958C018115B0E855
:103E80009B07F9F0B801CE0102960E94EC0C6E017E
:103E9000F0E5CF0ED11CB801C6010E94EC0C60E029
:103EA00070E0CE0182569F4F0E94EC0CC6010E942A
:103EB000E40CC351DF4F688379838A839B83D701E6
:103EC0001C92CDB7DEB7E8E00C943E308F929F9203
:103ED000AF92BF92EF92FF920F931F93CF93DF9316
:103EE000EC0188819981009709F46AC0DC01ED91A9
:103EF000FC910084F185E02D09958C018115B0E8D5
:103F00009B0709F45DC0BC01CE0102960E94DA0C49
:103F10007E01F0E5EF0EF11CB801C7010E94DA0C3A
:103F20008E0104511F4FD8018C9181508C938430A5
:103F300051F4C7010E94E40CFE01E351FF4F60837E
:103F4000718382839383F8018081811140C0C7010E
:103F50000E94E40C4B015C017E01FDEEEF0EF11CB2
:103F6000F70180819181A281B381A5019401281B71
:103F7000390B4A0B5B0B4C3151054CF4453EFFEFBE
:103F80005F074CF420E030E045EE5FEF04C020E036
:103F900030E04BE150E0A0EBB4E00E940830AB0110
:103FA000BC01CE0182569F4F0E94C20CD7018D9258
:103FB0009D92AD92BC92139783E0F801808307C075
:103FC000CF50DF4F88818F3F11F08F5F8883DF9163
:103FD000CF911F910F91FF90EF90BF90AF909F9066
:103FE0008F9008958E5B9F4FFC018281938108958D
:103FF00082569F4F0C94E40C08958C579F4F0C945D
:10400000B60D08958C579F4F0C94D60D08950296C7
:104010000C94B20C0895805B9F4F0C94B20C0895E1
:1040200082569F4F0C94B20C0895FC0180819181BF
:104030000895FC018085089522E231E0FC0131837E
:104040002083089522E231E0FC013183208329C5D9
:1040500008951F93CF93DF93EC01162F68878E810D
:104060009F81DC01ED91FC910190F081E02D09959B
:10407000112331F082E692E00E94872F9B838A838E
:10408000DF91CF911F910895CF93DF93EC016A8167
:104090007B8182E692E00E94772F2C813D818217FE
:1040A000930740F0E881F9810190F081E02D60E014
:1040B000CE010995DF91CF910895A5E1B0E0E3E647
:1040C000F0E20C9426308C01CE0101960E94AE31B4
:1040D000BE016F5F7F4FC801C5D46596E4E00C94C4
:1040E00042308FEF8093D80382E08093D70382E73A
:1040F00093E00E94872C20E044E064E182E793E0B3
:104100000E94362C82E793E00C94BC2B0895A9E022
:10411000B0E0EDE8F0E20C942630AC019058029744
:1041200030F46EE775E082E793E0C7DF1FC06627D3
:1041300057FD6095762F09E021E0CE01019621DC44
:10414000CE0101960E94D23115E0181B00E0011744
:104150003CF460E282E793E00E94202C0F5FF7CFEF
:10416000BE016F5F7F4F82E793E07CD42996E4E045
:104170000C944230CF93DF93EA01462F682F82E7F9
:1041800093E00E94F32BCE01C2DFDF91CF9108951F
:104190000E941A18AC0161E086E0ECCF08950E94FD
:1041A0002C18AC0161E08CE0E5CF08958091D70335
:1041B00080FF0CC08091140190911501DC01ED91FC
:1041C000FC910084F185E02D099502C00E94311810
:1041D000AC0162E086E0CECF08950E9443182091A2
:1041E000D70320FF02C081E090E8AC0162E08CE0E0
:1041F000C1CF0895462F682F82E793E00E94F32BEA
:104200006FED82E793E00E94202C60913B0382E7F0
:1042100093E00C94202C0895CF93DF93EA01462F6E
:10422000682F82E793E00E94F32BBE0182E793E0C0
:1042300044DFDF91CF91089549E755E060E080E0E9
:10424000EBDF4AEB55E061E080E0E6DF8091D703E9
:1042500080FF03C042E755E002C042EB55E062E058
:1042600080E0DADF61E082E1C5DF62E082E1C2CFB7
:1042700008958091D70381FF21C082E692E00E94D9
:10428000872F83FD0CC08091140190911501DC01F2
:10429000ED91FC910480F581E02D099501C080E04D
:1042A0009091D703292F2170821741F0882311F0B4
:1042B000916001C09E7F9093D703BEDF69DF6FDFFF
:1042C00075DF8BCF08958093D703B6DFD2CF0895E3
:1042D000CF93DF93EA01462F682F82E793E00E9495
:1042E000F32BBE0182E793E0BDD3DF91CF91089518
:1042F00040E067E082E793E00E94F32B8091320375
:104300008F36F9F038F4823661F08636E9F462EBE4
:1043100075E009C0803769F08437B1F468E575E06D
:1043200015C06AEB75E082E793E0C7DE6BEA75E0E3
:104330000DC06AEB75E082E793E0BFDE6AE675E0E8
:1043400005C066E675E002C06BE475E082E793E0C5
:10435000B4DE82E793E00C94C22C0895ABE0B0E0A9
:10436000E4EBF1E20C94243080911603811103C038
:104370002091190301C022E08091D803281721F170
:104380002093D8032A3078F4822F90E0880F991F69
:10439000FC01E85FFD4F40815181FC01EC50FE4F74
:1043A0000081118104C004E815E04AE055E063E0B3
:1043B00080E02B8731DFB80182E793E07EDE82E781
:1043C00093E00E94C22C2B852B870E9468172B85B7
:1043D00021110EC00E9456178C010E945F1708170A
:1043E000190718F40E94561719C00E945F1716C0CB
:1043F0003DEF320F323090F0283011F0293039F48F
:1044000024EB30E0A901481B590BCA0107C0255015
:104410002230B8F580910C0390910D038F3F5FEF30
:10442000950779F1ECE3F0E0BF010E94952F9C0124
:10443000CB01BF010E94952F7B013F932F939F9348
:104440008F93FF926F938DEF94E09F938F938E01E4
:104450000F5F1F4F1F930F930E94F0310FB6F89418
:10446000DEBF0FBECDBFE114F10429F40297AE0107
:104470004D5F5F4F01C0A80163E094E1981B892F55
:1044800027DF2B96E6E00C94403082E793E00C9413
:10449000522B089585E492E0909373038093720306
:1044A0000895FF920F931F93CF93DF938B01EC013D
:1044B0002B9640E065E5CE018BD788E0F82EF80119
:1044C00061918F0140E0CE0183D7FA94C1F7CDB757
:1044D000DEB7E5E00C944130FC01108612861186AF
:1044E00027E030E0DF01A20FB31F1C922115310538
:1044F00019F021503109F6CF0895A3E0B0E0E3E8C8
:10450000F2E20C941D308C016B01FC01828581115B
:1045100067C07801FBE0EF0EF11CC701D2D6811114
:1045200005C0F80110861286118671C040E060EF68
:10453000C7014ED7AA24A394912C812CBB24B394F9
:1045400077247394F8018085B81638F4E90DF11DCD
:1045500080818A2121F0798203C0B816E1F31982A3
:104560009E012E5F3F4FAE014D5F5F4FBE016F5FFB
:104570007F4FC70161D79B818A81992319F08823D6
:1045800061F024C0811109C08981811106C0F8E061
:10459000FB1510F0F801B1868B2C8981A92DB0E0B4
:1045A000A00FB11F813019F48C918A2904C08C911D
:1045B0009A2D909589238C93B394AA0C19F4939413
:1045C000AA24A394F7E0F91508F0BCCF80E48B157A
:1045D00038F4F8018086811014C081E0828711C010
:1045E000F80110861286118680E0D801F60120E0DD
:1045F00030E09D9191932F5F3F4F28303105C9F7EF
:1046000006C0F8018081882359F381E0EECF23961C
:10461000EDE00C943930FC0180E05CE8615088F0FA
:10462000419198E0742F7827282F30E03595279511
:10463000822F70FF02C0852F82274695915091F7F7
:10464000EDCF0895FC01818D228D90E0805C9F4F1D
:10465000821B91098F7399270895FC01918D828D9A
:10466000981731F0828DE80FF11D858D90E0089547
:104670008FEF9FEF0895FC01918D828D981761F067
:10468000828DDF01A80FB11D5D968C91928D9F5F89
:104690009F73928F90E008958FEF9FEF089582EEC1
:1046A00093E0D0DF21E0892B09F420E0822F0895E8
:1046B000A0E0B0E0EEE5F3E20C9422306C017A0168
:1046C000EB01E60EF71E00E010E0CE15DF0561F00D
:1046D0006991D601ED91FC910190F081E02DC60128
:1046E0000995080F191FF1CFC801CDB7DEB7E8E073
:1046F0000C943E30833081F028F4813099F0823080
:10470000A1F008958730A9F08830B9F08430D1F451
:10471000809180008F7D03C0809180008F7780938F
:104720008000089584B58F7702C084B58F7D84BDE5
:1047300008958091B0008F7703C08091B0008F7D85
:104740008093B0000895A2E0B0E0E9EAF3E20C94AF
:1047500026308C016115710589F0CB0169837A835C
:104760000E94D231D801ED91FC910280F381E02DBD
:10477000AC0169817A81C801099502C080E090E0AE
:104780002296E4E00C9442308FE493E2892B41F0CE
:1047900080E090E0892B21F082DF81110E940000EF
:1047A0000895FC01848DDF01A80FB11DA35ABF4FEE
:1047B0002C91848D90E001968F739927848FA68920
:1047C000B7892C93A089B1898C9180648C93938D47
:1047D000848D981306C00288F389E02D80818F7D37
:1047E00080830895CF93DF93EC01888D8823C1F0F7
:1047F000EA89FB89808185FD05C0A889B9898C91EA
:1048000086FD0EC00FB607FCF5CF808185FFF2CF85
:10481000A889B9898C9185FFEDCFCE01C2DFE8CFA1
:10482000DF91CF910895CF92DF92FF920F931F9364
:10483000CF93DF931F92CDB7DEB76C01DC015B969F
:104840009C915B975C968C915C97981307C05096EF
:10485000ED91FC915197808185FD31C0F601038D6A
:1048600010E00F5F1F4F0F731127F02EF601848D9C
:10487000F81210C00FB607FCF9CFD6015096ED9193
:10488000FC915197808185FFF1CFC601698389DF53
:104890006981ECCF838DE80FF11DE35AFF4F6083F0
:1048A000D6015B960C935B975296ED91FC915397D2
:1048B00080818062808381E058968C930DC0D60100
:1048C0005696ED91FC91579760835096ED91FC912F
:1048D000519780818064808381E090E00F90DF9128
:1048E000CF911F910F91FF90DF90CF900895BF92CD
:1048F000CF92DF92EF92FF92CF93DF93EC016A01A8
:104900007B01B22EE889F98982E08083411581EE2E
:10491000580761057105A1F060E079E08DE390E052
:10492000A70196010E94A92F21503109410951097F
:104930005695479537952795211580E1380798F0CA
:10494000E889F989108260E874E88EE190E0A701B7
:1049500096010E94A92F215031094109510956950C
:10496000479537952795EC85FD85832F992780837B
:10497000EE85FF852083188EEC89FD89B082EA8957
:10498000FB89808180618083EA89FB8980818860DE
:104990008083EA89FB89808180688083EA89FB893A
:1049A00080818F7D8083DF91CF91FF90EF90DF90AA
:1049B000CF90BF9008951F920F920FB60F921124BF
:1049C0002F938F939F93EF93FF93E091F203F091D6
:1049D000F3038081E091F803F091F90382FD12C0A6
:1049E00090818091FB038F5F8F732091FC0382176E
:1049F00051F0E091FB03F0E0EE51FC4F958F809376
:104A0000FB0301C08081FF91EF919F918F912F91C6
:104A10000F900FBE0F901F9018951F920F920FB618
:104A20000F9211242F933F934F935F936F937F9334
:104A30008F939F93AF93BF93EF93FF9382EE93E097
:104A4000B0DEFF91EF91BF91AF919F918F917F91D8
:104A50006F915F914F913F912F910F900FBE0F90EB
:104A60001F90189570CE0895DC01ED91FC91019096
:104A7000F081E02D099508950F931F93CF93DF9355
:104A8000EC016DE0F1DF8C016AE0CE01EDDF800F1B
:104A9000911FDF91CF911F910F9108950C944F308A
:104AA00008950C94E73008951F920F920FB60F925D
:104AB00011242F933F938F939F93AF93BF93809134
:104AC000DA039091DB03A091DC03B091DD03309118
:104AD000D90323E0230F2D3720F40196A11DB11D2A
:104AE00005C026E8230F0296A11DB11D2093D9030E
:104AF0008093DA039093DB03A093DC03B093DD0390
:104B00008091DE039091DF03A091E003B091E10377
:104B10000196A11DB11D8093DE039093DF03A09346
:104B2000E003B093E103BF91AF919F918F913F91CB
:104B30002F910F900FBE0F901F9018952FB7F894DC
:104B40006091DA037091DB038091DC039091DD03C7
:104B50002FBF08953FB7F8948091DE039091DF0353
:104B6000A091E003B091E10326B5A89B02C02F3FBE
:104B700089F43FBF6627782F892F9A2F620F711D06
:104B8000811D911DF2E0660F771F881F991FFA950E
:104B9000D1F708950196A11DB11DEBCF01970097A4
:104BA00039F0880F991F880F991F02970197F1F725
:104BB0000895789484B5826084BD84B5816084BD95
:104BC00085B5826085BD85B5816085BDEEE6F0E086
:104BD000808181608083E1E8F0E0108280818260E2
:104BE0008083808181608083E0E8F0E08081816063
:104BF0008083E1EBF0E0808184608083E0EBF0E093
:104C0000808181608083EAE7F0E080818460808336
:104C100080818260808380818160808380818068E0
:104C200080831092C1000895CF93DF9390E0FC0140
:104C3000EC52FA4F2491FC01E851FA4F84918823F9
:104C400049F190E0880F991FFC01E05FF94FA591B1
:104C5000B4918A5F994FFC01C591D4919FB76111BE
:104C600008C0F8948C91209582238C9388818223AC
:104C70000AC0623051F4F8948C91322F309583231E
:104C80008C938881822B888304C0F8948C91822B2A
:104C90008C939FBFDF91CF910895A1E0B0E0E3E551
:104CA000F6E20C942630282F30E0F901E054FA4F58
:104CB0008491F901EC52FA4F1491F901E851FA4F3D
:104CC00004910023C1F0882319F0698313DD698101
:104CD000E02FF0E0EE0FFF1FEA5FF94FA591B491CE
:104CE0009FB7F8948C91611103C01095812301C086
:104CF000812B8C939FBF2196E4E00C944230CF939C
:104D0000DF93282F30E0F901E054FA4F8491F90144
:104D1000EC52FA4FD491F901E851FA4FC491CC23E7
:104D200079F08111E7DCEC2FF0E0EE0FFF1FE4508B
:104D3000FA4FA591B4912C912D2381E090E011F4CC
:104D400080E090E0DF91CF9108950895CF92DF92B7
:104D5000EF92FF92CF93DF936B017C01FBDEEB01BF
:104D6000C114D104E104F10479F0EFDFF3DE6C1B30
:104D70007D0B683E7340A0F381E0C81AD108E108BA
:104D8000F108C851DC4FECCFDF91CF91FF90EF904D
:104D9000DF90CF900895FFCF1092E5031092E403C7
:104DA00088EE93E0A0E0B0E08093E6039093E70301
:104DB000A093E803B093E90380E292E09093E303C9
:104DC0008093E20385EC90E09093EF038093EE03F1
:104DD00084EC90E09093F1038093F00380EC90E0FA
:104DE0009093F3038093F20381EC90E09093F503AA
:104DF0008093F40382EC90E09093F7038093F603A2
:104E000086EC90E09093F9038093F8031092FB03F3
:104E10001092FC031092FD031092FE03089522E20B
:104E200031E0FC0131832083089522E231E0FC016E
:104E30003183208336CE0895A1E0B0E0E2E2F7E2CC
:104E40000C9426308C01DC01ED91FC910280F38101
:104E5000E02D698309956981681759F0F80162832B
:104E60008091B000662311F0806201C08F7D809335
:104E7000B0002196E4E00C94423061E083E0D4DE9F
:104E800081E28093B0008BE08093B1008DE7809346
:104E9000B3008EE38093B4000895A0E0B0E0E3E5B2
:104EA000F7E20C942330D62E7A01C0E0D0E0062F32
:104EB00010E001501109CD15C8F48091B000806256
:104EC0008093B000B70181E692E00E94902F80911C
:104ED000B0008F7D8093B000C017D1072CF4B701CC
:104EE00081E692E00E94902F2196E5CFCDB7DEB704
:104EF000E7E00C943F301092810480E392E09093BD
:104F0000800480937F04089582E291E0909380046E
:104F100080937F0408950C9400000895089549DE5D
:104F20000E94A103C4ECD3E20E940F042097E1F396
:104F30002BDCFACF1F920F920FB60F9211240F9015
:104F40000FBE0F901F90189508953BD34CE750E08B
:104F5000682F80E061C9089543E856E060E087E08B
:104F60005BC90895A4E0B0E0E8EBF7E20C942830C8
:104F700082E6898386E68A8380E78B838FE68C834B
:104F800020D38C0F9D1F60E0FC0181810E94CD1712
:104F90002496E2E00C9444306F927F929F92AF92FD
:104FA000BF92CF92DF92EF92FF920F931F93CF9316
:104FB000DF931F92CDB7DEB77C018B015A016901E7
:104FC00082E692E0A4D73C01912CB30182E692E004
:104FD0008ED70A9750F50E94BF14882339F082E6D5
:104FE00092E095D73C01F701099502C0911004C0E9
:104FF000F8010995912C05C0F0E89F1202C0F50157
:10500000099580910403882349F010920403898351
:10501000F8010995F6010995898108C0939463E028
:1050200070E081E692E07CD7D0CF80E00F90DF91F6
:10503000CF911F910F91FF90EF90DF90CF90BF9095
:10504000AF909F907F906F90089542E050E060E0B5
:1050500070E080E090E0A5D22DE039E245EA57E229
:105060006CE171E284EA97E297CF0895CF93C09103
:10507000D7038C2F8C7F27D9E8DF8C2F24D9CF91B1
:105080000895CF93C09132036C2F88E392E00E9481
:10509000210443E050E060E070E090E082D226E23C
:1050A00039E24CEA57E268E771E282EB97E274DF9B
:1050B000811104C060E08C2F0E94CD17CF9108951C
:1050C000A9E0B0E0E5E6F8E2B5C72B016A014901C5
:1050D000FC0109957C01A0903C03B0903D036091D8
:1050E0003E0370913F039058029718F4E12C88EC2E
:1050F000F82E882777FD8095982F0E94001D3C018F
:10510000B501882777FD8095982F0E94001D5C01CE
:10511000B701882777FD8095982F0E94001DA30175
:10512000B5013FD282E692E0F2D65C01712CB50166
:1051300082E692E0DCD60A9708F04CC00E94BF14C9
:10514000882389F182E692E0E2D65C013AD20E949D
:10515000381D7C01AC01602F8CE00CD880910403D9
:10516000882321F310920403C701F2010995A701D6
:10517000662757FD6095762F09E021E0CE01019664
:105180000E94C11C9F938F93DF92CF9286E296E09C
:105190009F938F93F40109950F900F900F900F90AC
:1051A0000F900F9017C0711006C0A701602F8CE000
:1051B0000E94BA2008C0F0E87F1205C04CE750E01A
:1051C000602F8CE029D8739463E070E081E692E070
:1051D000A7D6ADCF2996E0E149C70F931F9302E010
:1051E00010E027E232E14FE156E06DE37AE183E43B
:1051F00098E166DF1F910F9108950F931F9301E0CF
:1052000010E028EC31E14AE156E06EE07AE18CE210
:1052100098E156DF1F910F910895D3D18130910508
:1052200039F08230910559F0892B79F42ACF08950D
:1052300060E082E60E94CD175BD8DFCF089560E082
:1052400086E60E94CD1754D8C8CF089580913203C6
:10525000823611F4D2CF0895863611F4BECF089568
:10526000803719F482E696E004C08F3641F481E479
:1052700096E09F938F930E94C8110F900F9008950E
:105280001F93CF93DF93EC01162F6B8360E0812F88
:10529000CBDC612F70E0FB01EC52FA4FE491E88324
:1052A000FB01E851FA4FE491F0E0EE0FFF1FE450EC
:1052B000FA4F859194919A838983DF91CF911F91C1
:1052C0000895FF920F931F93CF93DF93FC0100810A
:1052D000C181D281F8948981F02EF0948F21898345
:1052E00078941DE7115009F182E090E057DC888145
:1052F0008023C1F3F8948A818F218A838981802B4E
:105300008983789480EE91E049DCF89489818F213B
:10531000898386E490E042DC8881802311E009F0F3
:1053200010E078948AE991E039DC812FCDB7DEB7BF
:10533000E5E0A7C60F931F93CF93DF93FC01108185
:10534000C181D281662319F007E38AE002C005E03B
:1053500081E4F8942A81912F909592239A839981E0
:10536000912B998390E01ADC9A81912B9A837894FF
:10537000802F90E013DCDF91CF911F910F91089562
:105380000F931F93CF93DF93FC011081C181D281D2
:10539000F8948981812B89838A81012F009580234C
:1053A0008A8383E090E0FADB8981802389838AE025
:1053B00090E0F4DBC881789485E390E0EFDB1C2378
:1053C00081E009F480E0DF91CF911F910F91089562
:1053D000EF92FF920F931F93CF93DF938C01E62EF2
:1053E000C8E0D0E0FF24F39461E09F2D9E2109F4F2
:1053F00060E0C8019FDFFF0C21972097A9F7CDB788
:10540000DEB7E6E03DC6EF92FF920F931F93CF9376
:10541000DF938C01C8E0D0E0F12CEE24E394C801C6
:10542000AFDF8111FE28EE0C21972097C1F78F2D59
:10543000CDB7DEB7E6E024C6A0E0B0E0E1E2FAE2F4
:1054400001C6EC017B018A0169019ADFF8018083C2
:10545000CE0196DFF6018083F8019081911103C09F
:10546000811105C006C0913011F4813011F0F701AF
:105470009083F7016081CE015DDFCDB7DEB7E8E054
:10548000FDC5823119F482E894E0089580E090E04F
:105490000895843030F4E82FF0E0E35CFD4F808124
:1054A00008958FEF0895811102C084E008958FEF71
:1054B0000895811102C082E108958FEF089562E19D
:1054C0008DE894E0DDDE82E894E006C808951F923E
:1054D0000F920FB60F9211242F933F934F935F9328
:1054E0006F937F938F939F93AF93BF93EF93FF93AC
:1054F0004F9B0E94B714FF91EF91BF91AF919F9185
:105500008F917F916F915F914F913F912F910F906C
:105510000FBE0F901F9018951F920F920FB60F920B
:1055200011242F933F934F935F936F937F938F93A8
:105530009F93AF93BF93EF93FF9383B163B191E0D8
:10554000669561706927817089270E947114FF91A7
:10555000EF91BF91AF919F918F917F916F915F91EB
:105560004F913F912F910F900FBE0F901F90189564
:1055700062E088E059DB62E089E056DB62E087E0C8
:1055800053DBE8E6F0E0808185608083EBE6F0E0C5
:10559000808183608083EDE6F0E080818068808395
:1055A00008952FB7F89490930603809305037093A2
:1055B00008036093070350930A03409309032FBF26
:1055C00008952FB7F89480910503909106032FBF9B
:1055D000089594E19A95F1F7089508951B9BFECFE5
:1055E000A89408950895229823982A982B9888279C
:1055F00099271A9B08951B9B089581E0089581E0E7
:1056000008951B9BEBDF229AE4DF1AC081E0089526
:105610008F938F918F931B9BE1DF229ADADF10D05B
:10562000882311F404D0F5CF0F9008950895239A9C
:10563000229ACFDF2398CDDF1B9BD0DF2298C9CFE2
:105640000894881F01C0880FB9F0239A0000000059
:10565000000018F40000229802C0229A00C0B9DFAE
:105660002398A8940000000000001B9BB7DF12F4F1
:10567000882712C0AEDFE7CF239A000000002298EF
:10568000A8DF992788272398A89400001B9BA6DFF2
:105690007AF31A9B81E09DDF00000000239A0895B1
:1056A00081E00895FC011382128285E492E09183E7
:1056B000808380E2848384E1838784E08487158605
:1056C0000895A1E0B0E0E6E6FBE2C2C4FC018585F6
:1056D000682B8481880F69839BDF6981862FB0DF07
:1056E000A6DF2196E2E0D0C428E0FC01258760E037
:1056F000E8CF08951F93CF93DF93EC01162F6460DA
:10570000E0DF81E090E04ADA612F6B7FCE01D9DFE4
:1057100082E390E043DADF91CF911F9108951F93C8
:10572000CF93DF93EC01162FCCDF612FCE01E2DFA8
:10573000DF91CF911F910895EF92FF921F93CF9326
:10574000DF931F92CDB7DEB77C01162F607F642BED
:105750004983E5DF80E1189FB00111244981642B62
:10576000C701DDDF0F90DF91CF911F91FF90EF9088
:10577000089540E0E1CF0895CF93DF93EC0161E01D
:10578000F8DFAC8580E090E065E1B0E28A17F8F4DC
:105790007B85689FA001699F500D11244C0F5D1FF0
:1057A00020E030E0271738F4FA01E20FF31FB18B45
:1057B0002F5F3F4FF7CF689FF001699FF00D1124D5
:1057C000EC0FFD1FE70FF11D118A0196DFCF80ED71
:1057D00097E0E4D9DF91CF91089562E0CADF80EDD0
:1057E00097E0DCC90895A8E0B0E0E8EFFBE230C440
:1057F00028E0E6E1F1E0DE01119601900D922A9594
:10580000E1F7FC012085241710F44FEF420FFC0153
:1058100041876287FE013196E40FF11DE40FF11D0F
:105820002081260F2068622FA4DF2896E2E02CC496
:10583000FC016681262F246026836C609ACF089530
:10584000FC012285318545E1349FE00DF11D1124D5
:10585000E20FF11D618B2F5FFC012287208921114E
:1058600002C041E069DF80E090E00895CF93DF93CC
:10587000EC01423018F08D8188608D83488719864D
:105880001A8662E370E080E090E060DA6D85CE0118
:1058900018DF68EE73E080E090E058DA60E3CE0154
:1058A0003EDF84E991E17AD960E3CE0138DF84E913
:1058B00091E174D960E3CE0132DF86E990E06ED9E0
:1058C00060E2CE012CDF6D816062CE0152DF84E0A8
:1058D0008E83CE01ADDFCE014FDF82E08F8366E0A5
:1058E000CE0147DFCE0179DFDF91CF910895CF93CD
:1058F000DF93EC0178DE8C81880F83DE1D8220E04F
:105900004C856B85CE01B2DFDF91CF910895CF93A7
:10591000DF93EC01ECDF1F861E86DF91CF910895A7
:10592000CF93DF93EC0182E692E0F1D29F878E87DE
:10593000DF91CF910895D8CE0895CF93DF939C0146
:1059400075E1679F200D311D11242F5E3F4FA0E0B0
:10595000FC016385A61778F46A2F70E0F901E60F61
:10596000F71FE081EA01C60FD71FEF3D09F4E0EB16
:10597000E883AF5FEDCFFA01E60FF11D1082DF91F2
:10598000CF910895CF93DF93EC019A858B8598177B
:1059900020F460E2CE0168D8F8CFDF91CF9108956E
:1059A0008FE794E06ADA44EF51E062E08FE794E039
:1059B00074DA0E947120DCDD80E0089560E070E020
:1059C000CB0108950E941C210C94AE210895809172
:1059D0006002882369F0E0917F04F09180040280E6
:1059E000F381E02D8FE794E0099561E0682701C01D
:1059F00060E08FE794E020DA80910403882319F0B7
:105A00001092040333CB08950E94AE210E943921E5
:105A10000E94782182E793E08ECF089580E0089578
:105A20000B964FDC91E0811101C090E0892F089521
:105A3000FC01718360830895FF920F931F93CF93AE
:105A4000DF93EC018B01F42E88819981E9DFB801A5
:105A5000888199810E9451228881998140E06F2D2F
:105A60000B96B6DCCDB7DEB7E5E00BC3EF92FF9245
:105A70000F931F93CF93DF93EC017A014EEBDCDFA2
:105A800000E010E0888199810B96BDDCF7018193DD
:105A90007F010F5F1F4F09301105A1F788819981A0
:105AA000BFDFCDB7DEB7E6E0EBC2A0E0B0E0EAE5ED
:105AB000FDE2C9C28C017B01EA0182E0D82EAE0171
:105AC000B701C801D3DF68E0CE010E940B2398859F
:105AD000891721F0DA9499F780E001C081E0CDB711
